{
  "contractName": "CompanyContract",
  "abi": [
    {
      "anonymous": false,
      "inputs": [
        {
          "indexed": true,
          "internalType": "address",
          "name": "walletAddress",
          "type": "address"
        },
        {
          "indexed": false,
          "internalType": "uint256",
          "name": "amount",
          "type": "uint256"
        }
      ],
      "name": "CarbonCreditsAdded",
      "type": "event"
    },
    {
      "anonymous": false,
      "inputs": [
        {
          "indexed": true,
          "internalType": "address",
          "name": "walletAddress",
          "type": "address"
        },
        {
          "indexed": false,
          "internalType": "uint256",
          "name": "amount",
          "type": "uint256"
        }
      ],
      "name": "CarbonCreditsDeducted",
      "type": "event"
    },
    {
      "anonymous": false,
      "inputs": [
        {
          "indexed": false,
          "internalType": "address",
          "name": "walletAddress",
          "type": "address"
        },
        {
          "indexed": false,
          "internalType": "string",
          "name": "name",
          "type": "string"
        },
        {
          "indexed": false,
          "internalType": "uint256",
          "name": "emissions",
          "type": "uint256"
        }
      ],
      "name": "CompanyRegistered",
      "type": "event"
    },
    {
      "inputs": [
        {
          "internalType": "address",
          "name": "",
          "type": "address"
        }
      ],
      "name": "companies",
      "outputs": [
        {
          "internalType": "address",
          "name": "walletAddress",
          "type": "address"
        },
        {
          "internalType": "string",
          "name": "name",
          "type": "string"
        },
        {
          "internalType": "string",
          "name": "registrationNumber",
          "type": "string"
        },
        {
          "internalType": "uint256",
          "name": "carbonCredits",
          "type": "uint256"
        },
        {
          "internalType": "uint256",
          "name": "emissions",
          "type": "uint256"
        }
      ],
      "stateMutability": "view",
      "type": "function",
      "constant": true
    },
    {
      "inputs": [
        {
          "internalType": "address",
          "name": "",
          "type": "address"
        }
      ],
      "name": "companyCredits",
      "outputs": [
        {
          "internalType": "uint256",
          "name": "",
          "type": "uint256"
        }
      ],
      "stateMutability": "view",
      "type": "function",
      "constant": true
    },
    {
      "inputs": [
        {
          "internalType": "address",
          "name": "_walletAddress",
          "type": "address"
        },
        {
          "internalType": "string",
          "name": "_name",
          "type": "string"
        },
        {
          "internalType": "string",
          "name": "_registrationNumber",
          "type": "string"
        },
        {
          "internalType": "uint256",
          "name": "_emissions",
          "type": "uint256"
        }
      ],
      "name": "registerCompany",
      "outputs": [],
      "stateMutability": "nonpayable",
      "type": "function"
    },
    {
      "inputs": [
        {
          "internalType": "address",
          "name": "_walletAddress",
          "type": "address"
        },
        {
          "internalType": "uint256",
          "name": "_amount",
          "type": "uint256"
        }
      ],
      "name": "addCarbonCredits",
      "outputs": [],
      "stateMutability": "nonpayable",
      "type": "function"
    },
    {
      "inputs": [
        {
          "internalType": "address",
          "name": "_walletAddress",
          "type": "address"
        },
        {
          "internalType": "uint256",
          "name": "_amount",
          "type": "uint256"
        }
      ],
      "name": "deductCarbonCredits",
      "outputs": [],
      "stateMutability": "nonpayable",
      "type": "function"
    }
  ],
  "bytecode": "0x608060405234801561000f575f80fd5b506110938061001d5f395ff3fe608060405234801561000f575f80fd5b5060043610610055575f3560e01c80632961a90714610059578063355e6ce814610075578063c7eacca9146100a9578063d37e4145146100c5578063efae5866146100f5575b5f80fd5b610073600480360381019061006e91906109e0565b610111565b005b61008f600480360381019061008a9190610a7c565b61032f565b6040516100a0959493929190610b3f565b60405180910390f35b6100c360048036038101906100be9190610b9e565b61048b565b005b6100df60048036038101906100da9190610a7c565b61067f565b6040516100ec9190610bdc565b60405180910390f35b61010f600480360381019061010a9190610b9e565b610694565b005b5f805f8673ffffffffffffffffffffffffffffffffffffffff1673ffffffffffffffffffffffffffffffffffffffff1681526020019081526020015f2090505f73ffffffffffffffffffffffffffffffffffffffff16815f015f9054906101000a900473ffffffffffffffffffffffffffffffffffffffff1673ffffffffffffffffffffffffffffffffffffffff16036102e4576040518060a001604052808673ffffffffffffffffffffffffffffffffffffffff1681526020018581526020018481526020015f8152602001838152505f808773ffffffffffffffffffffffffffffffffffffffff1673ffffffffffffffffffffffffffffffffffffffff1681526020019081526020015f205f820151815f015f6101000a81548173ffffffffffffffffffffffffffffffffffffffff021916908373ffffffffffffffffffffffffffffffffffffffff16021790555060208201518160010190816102779190610def565b50604082015181600201908161028d9190610def565b5060608201518160030155608082015181600401559050507e78dab93f1aeefc09535aa58402d91dde97c29a340cd7a0a57e12529c94e2148585846040516102d793929190610ebe565b60405180910390a1610328565b8181600401819055507e78dab93f1aeefc09535aa58402d91dde97c29a340cd7a0a57e12529c94e21485858460405161031f93929190610ebe565b60405180910390a15b5050505050565b5f602052805f5260405f205f91509050805f015f9054906101000a900473ffffffffffffffffffffffffffffffffffffffff169080600101805461037290610c22565b80601f016020809104026020016040519081016040528092919081815260200182805461039e90610c22565b80156103e95780601f106103c0576101008083540402835291602001916103e9565b820191905f5260205f20905b8154815290600101906020018083116103cc57829003601f168201915b5050505050908060020180546103fe90610c22565b80601f016020809104026020016040519081016040528092919081815260200182805461042a90610c22565b80156104755780601f1061044c57610100808354040283529160200191610475565b820191905f5260205f20905b81548152906001019060200180831161045857829003601f168201915b5050505050908060030154908060040154905085565b5f73ffffffffffffffffffffffffffffffffffffffff165f808473ffffffffffffffffffffffffffffffffffffffff1673ffffffffffffffffffffffffffffffffffffffff1681526020019081526020015f205f015f9054906101000a900473ffffffffffffffffffffffffffffffffffffffff1673ffffffffffffffffffffffffffffffffffffffff1603610556576040517f08c379a000000000000000000000000000000000000000000000000000000000815260040161054d90610f44565b60405180910390fd5b805f808473ffffffffffffffffffffffffffffffffffffffff1673ffffffffffffffffffffffffffffffffffffffff1681526020019081526020015f206003015410156105d8576040517f08c379a00000000000000000000000000000000000000000000000000000000081526004016105cf90610fac565b60405180910390fd5b805f808473ffffffffffffffffffffffffffffffffffffffff1673ffffffffffffffffffffffffffffffffffffffff1681526020019081526020015f206003015f8282546106269190610ff7565b925050819055508173ffffffffffffffffffffffffffffffffffffffff167fd060d70a4e4c862c9b406a8d65b43e2d776c561d2584f38452c305efd45f655b826040516106739190610bdc565b60405180910390a25050565b6001602052805f5260405f205f915090505481565b5f73ffffffffffffffffffffffffffffffffffffffff165f808473ffffffffffffffffffffffffffffffffffffffff1673ffffffffffffffffffffffffffffffffffffffff1681526020019081526020015f205f015f9054906101000a900473ffffffffffffffffffffffffffffffffffffffff1673ffffffffffffffffffffffffffffffffffffffff160361075f576040517f08c379a000000000000000000000000000000000000000000000000000000000815260040161075690610f44565b60405180910390fd5b805f808473ffffffffffffffffffffffffffffffffffffffff1673ffffffffffffffffffffffffffffffffffffffff1681526020019081526020015f206003015f8282546107ad919061102a565b925050819055508173ffffffffffffffffffffffffffffffffffffffff167f1fb0700c613db30cd4de48e588ed2839815da65b8879f385d0fbb1718d8020f7826040516107fa9190610bdc565b60405180910390a25050565b5f604051905090565b5f80fd5b5f80fd5b5f73ffffffffffffffffffffffffffffffffffffffff82169050919050565b5f61084082610817565b9050919050565b61085081610836565b811461085a575f80fd5b50565b5f8135905061086b81610847565b92915050565b5f80fd5b5f80fd5b5f601f19601f8301169050919050565b7f4e487b71000000000000000000000000000000000000000000000000000000005f52604160045260245ffd5b6108bf82610879565b810181811067ffffffffffffffff821117156108de576108dd610889565b5b80604052505050565b5f6108f0610806565b90506108fc82826108b6565b919050565b5f67ffffffffffffffff82111561091b5761091a610889565b5b61092482610879565b9050602081019050919050565b828183375f83830152505050565b5f61095161094c84610901565b6108e7565b90508281526020810184848401111561096d5761096c610875565b5b610978848285610931565b509392505050565b5f82601f83011261099457610993610871565b5b81356109a484826020860161093f565b91505092915050565b5f819050919050565b6109bf816109ad565b81146109c9575f80fd5b50565b5f813590506109da816109b6565b92915050565b5f805f80608085870312156109f8576109f761080f565b5b5f610a058782880161085d565b945050602085013567ffffffffffffffff811115610a2657610a25610813565b5b610a3287828801610980565b935050604085013567ffffffffffffffff811115610a5357610a52610813565b5b610a5f87828801610980565b9250506060610a70878288016109cc565b91505092959194509250565b5f60208284031215610a9157610a9061080f565b5b5f610a9e8482850161085d565b91505092915050565b610ab081610836565b82525050565b5f81519050919050565b5f82825260208201905092915050565b5f5b83811015610aed578082015181840152602081019050610ad2565b5f8484015250505050565b5f610b0282610ab6565b610b0c8185610ac0565b9350610b1c818560208601610ad0565b610b2581610879565b840191505092915050565b610b39816109ad565b82525050565b5f60a082019050610b525f830188610aa7565b8181036020830152610b648187610af8565b90508181036040830152610b788186610af8565b9050610b876060830185610b30565b610b946080830184610b30565b9695505050505050565b5f8060408385031215610bb457610bb361080f565b5b5f610bc18582860161085d565b9250506020610bd2858286016109cc565b9150509250929050565b5f602082019050610bef5f830184610b30565b92915050565b7f4e487b71000000000000000000000000000000000000000000000000000000005f52602260045260245ffd5b5f6002820490506001821680610c3957607f821691505b602082108103610c4c57610c4b610bf5565b5b50919050565b5f819050815f5260205f209050919050565b5f6020601f8301049050919050565b5f82821b905092915050565b5f60088302610cae7fffffffffffffffffffffffffffffffffffffffffffffffffffffffffffffffff82610c73565b610cb88683610c73565b95508019841693508086168417925050509392505050565b5f819050919050565b5f610cf3610cee610ce9846109ad565b610cd0565b6109ad565b9050919050565b5f819050919050565b610d0c83610cd9565b610d20610d1882610cfa565b848454610c7f565b825550505050565b5f90565b610d34610d28565b610d3f818484610d03565b505050565b5b81811015610d6257610d575f82610d2c565b600181019050610d45565b5050565b601f821115610da757610d7881610c52565b610d8184610c64565b81016020851015610d90578190505b610da4610d9c85610c64565b830182610d44565b50505b505050565b5f82821c905092915050565b5f610dc75f1984600802610dac565b1980831691505092915050565b5f610ddf8383610db8565b9150826002028217905092915050565b610df882610ab6565b67ffffffffffffffff811115610e1157610e10610889565b5b610e1b8254610c22565b610e26828285610d66565b5f60209050601f831160018114610e57575f8415610e45578287015190505b610e4f8582610dd4565b865550610eb6565b601f198416610e6586610c52565b5f5b82811015610e8c57848901518255600182019150602085019450602081019050610e67565b86831015610ea95784890151610ea5601f891682610db8565b8355505b6001600288020188555050505b505050505050565b5f606082019050610ed15f830186610aa7565b8181036020830152610ee38185610af8565b9050610ef26040830184610b30565b949350505050565b7f436f6d70616e79206e6f7420726567697374657265642e0000000000000000005f82015250565b5f610f2e601783610ac0565b9150610f3982610efa565b602082019050919050565b5f6020820190508181035f830152610f5b81610f22565b9050919050565b7f4e6f7420656e6f75676820636172626f6e20637265646974732e0000000000005f82015250565b5f610f96601a83610ac0565b9150610fa182610f62565b602082019050919050565b5f6020820190508181035f830152610fc381610f8a565b9050919050565b7f4e487b71000000000000000000000000000000000000000000000000000000005f52601160045260245ffd5b5f611001826109ad565b915061100c836109ad565b925082820390508181111561102457611023610fca565b5b92915050565b5f611034826109ad565b915061103f836109ad565b925082820190508082111561105757611056610fca565b5b9291505056fea2646970667358221220b3e7cf81284d1181c73281dd6ee6f94aafb8b29fd027c622b3527998b9807ca664736f6c63430008150033",
  "immutableReferences": {},
  "source": "// SPDX-License-Identifier: MIT\n// Contain the `Company` struct and related functions\npragma solidity ^0.8.0;\n\ncontract CompanyContract {\n    struct Company {\n        address walletAddress;\n        string name;\n        string registrationNumber; // Unique registration number for the company\n        uint carbonCredits; // New attribute for carbon credits\n        uint emissions; // New attribute for emissions\n        // Add other company details as needed\n    }\n\n    mapping(address => Company) public companies;\n    mapping(address => uint) public companyCredits; // Mapping to track credit balances\n\n    // Event to emit when a company is registered\n    event CompanyRegistered(address walletAddress, string name, uint emissions);\n\n    // Event to emit when carbon credits are added\n    event CarbonCreditsAdded(address indexed walletAddress, uint amount);\n\n    // Event to emit when carbon credits are deducted\n    event CarbonCreditsDeducted(address indexed walletAddress, uint amount);\n\n    function registerCompany(\n        address _walletAddress,\n        string memory _name,\n        string memory _registrationNumber,\n        uint _emissions // Pass emissions as a parameter\n        // Add other parameters as needed\n    ) public {\n        Company storage company = companies[_walletAddress];\n\n        if (company.walletAddress == address(0)) {\n            // Create a new Company struct if the company is not registered\n            companies[_walletAddress] = Company({\n                walletAddress: _walletAddress,\n                name: _name,\n                registrationNumber: _registrationNumber,\n                carbonCredits: 0, // Initialize carbon credits to 0 for new companies\n                emissions: _emissions // Set emissions to the passed value\n                // Set other details\n            });\n\n            // Emit an event after successful registration\n            emit CompanyRegistered(_walletAddress, _name, _emissions);\n        } else {\n            // Update emissions if the company already exists\n            company.emissions = _emissions;\n\n            // Emit an event after updating emissions\n            emit CompanyRegistered(_walletAddress, _name, _emissions);\n        }\n    }\n\n    // Function to add carbon credits for a company\n    function addCarbonCredits(address _walletAddress, uint _amount) public {\n        require(companies[_walletAddress].walletAddress != address(0), \"Company not registered.\");\n        \n        // Update the carbon credits for the company\n        companies[_walletAddress].carbonCredits += _amount;\n        \n        // Emit an event after adding carbon credits\n        emit CarbonCreditsAdded(_walletAddress, _amount);\n    }\n\n    // Function to deduct carbon credits from a company\n    function deductCarbonCredits(address _walletAddress, uint _amount) public {\n        require(companies[_walletAddress].walletAddress != address(0), \"Company not registered.\");\n        require(companies[_walletAddress].carbonCredits >= _amount, \"Not enough carbon credits.\");\n        \n        // Deduct the carbon credits from the company\n        companies[_walletAddress].carbonCredits -= _amount;\n        \n        // Emit an event after deducting carbon credits\n        emit CarbonCreditsDeducted(_walletAddress, _amount);\n    }\n\n    // Additional functions related to companies\n}\n",
  "sourcePath": "/Users/joyce/Desktop/carbon-credit-proj/contracts/CompanyContract.sol",
  "compiler": {
    "name": "solc",
    "version": "0.8.21+commit.d9974bed.Emscripten.clang"
  },
  "schemaVersion": "3.4.16",
  "updatedAt": "2023-12-04T14:55:58.921Z",
  "networkType": "ethereum",
  "devdoc": {
    "kind": "dev",
    "methods": {},
    "version": 1
  },
  "userdoc": {
    "kind": "user",
    "methods": {},
    "version": 1
  }
}