{
  "contractName": "CarbonCredits",
  "abi": [
    {
      "anonymous": false,
      "inputs": [
        {
          "indexed": false,
          "internalType": "address",
          "name": "walletAddress",
          "type": "address"
        },
        {
          "indexed": false,
          "internalType": "string",
          "name": "name",
          "type": "string"
        }
      ],
      "name": "CompanyRegistered",
      "type": "event"
    },
    {
      "inputs": [
        {
          "internalType": "address",
          "name": "",
          "type": "address"
        }
      ],
      "name": "companies",
      "outputs": [
        {
          "internalType": "address",
          "name": "walletAddress",
          "type": "address"
        },
        {
          "internalType": "string",
          "name": "name",
          "type": "string"
        },
        {
          "internalType": "string",
          "name": "registrationNumber",
          "type": "string"
        }
      ],
      "stateMutability": "view",
      "type": "function"
    },
    {
      "inputs": [
        {
          "internalType": "address",
          "name": "",
          "type": "address"
        }
      ],
      "name": "companyCredits",
      "outputs": [
        {
          "internalType": "uint256",
          "name": "",
          "type": "uint256"
        }
      ],
      "stateMutability": "view",
      "type": "function"
    },
    {
      "inputs": [
        {
          "internalType": "uint256",
          "name": "_tradeId",
          "type": "uint256"
        }
      ],
      "name": "completeTrade",
      "outputs": [],
      "stateMutability": "nonpayable",
      "type": "function"
    },
    {
      "inputs": [
        {
          "internalType": "address",
          "name": "_buyer",
          "type": "address"
        },
        {
          "internalType": "address",
          "name": "_seller",
          "type": "address"
        },
        {
          "internalType": "uint256",
          "name": "_creditsAmount",
          "type": "uint256"
        },
        {
          "internalType": "string",
          "name": "_terms",
          "type": "string"
        }
      ],
      "name": "createTrade",
      "outputs": [],
      "stateMutability": "nonpayable",
      "type": "function"
    },
    {
      "inputs": [],
      "name": "projectCount",
      "outputs": [
        {
          "internalType": "uint256",
          "name": "",
          "type": "uint256"
        }
      ],
      "stateMutability": "view",
      "type": "function"
    },
    {
      "inputs": [
        {
          "internalType": "uint256",
          "name": "",
          "type": "uint256"
        }
      ],
      "name": "projects",
      "outputs": [
        {
          "internalType": "uint256",
          "name": "id",
          "type": "uint256"
        },
        {
          "internalType": "address",
          "name": "companyAddress",
          "type": "address"
        },
        {
          "internalType": "string",
          "name": "name",
          "type": "string"
        },
        {
          "internalType": "string",
          "name": "description",
          "type": "string"
        },
        {
          "internalType": "string",
          "name": "status",
          "type": "string"
        },
        {
          "internalType": "uint256",
          "name": "expectedOffsets",
          "type": "uint256"
        }
      ],
      "stateMutability": "view",
      "type": "function"
    },
    {
      "inputs": [
        {
          "internalType": "address",
          "name": "_walletAddress",
          "type": "address"
        },
        {
          "internalType": "string",
          "name": "_name",
          "type": "string"
        },
        {
          "internalType": "string",
          "name": "_registrationNumber",
          "type": "string"
        }
      ],
      "name": "registerCompany",
      "outputs": [],
      "stateMutability": "nonpayable",
      "type": "function"
    },
    {
      "inputs": [
        {
          "internalType": "string",
          "name": "_projectName",
          "type": "string"
        },
        {
          "internalType": "uint256",
          "name": "_expectedOffsets",
          "type": "uint256"
        },
        {
          "internalType": "string",
          "name": "_description",
          "type": "string"
        }
      ],
      "name": "submitProject",
      "outputs": [],
      "stateMutability": "nonpayable",
      "type": "function"
    },
    {
      "inputs": [],
      "name": "tradeCount",
      "outputs": [
        {
          "internalType": "uint256",
          "name": "",
          "type": "uint256"
        }
      ],
      "stateMutability": "view",
      "type": "function"
    },
    {
      "inputs": [
        {
          "internalType": "uint256",
          "name": "",
          "type": "uint256"
        }
      ],
      "name": "trades",
      "outputs": [
        {
          "internalType": "uint256",
          "name": "id",
          "type": "uint256"
        },
        {
          "internalType": "address",
          "name": "buyer",
          "type": "address"
        },
        {
          "internalType": "address",
          "name": "seller",
          "type": "address"
        },
        {
          "internalType": "uint256",
          "name": "creditsAmount",
          "type": "uint256"
        },
        {
          "internalType": "string",
          "name": "terms",
          "type": "string"
        },
        {
          "internalType": "string",
          "name": "status",
          "type": "string"
        }
      ],
      "stateMutability": "view",
      "type": "function"
    },
    {
      "inputs": [
        {
          "internalType": "uint256",
          "name": "_projectId",
          "type": "uint256"
        },
        {
          "internalType": "bool",
          "name": "_isApproved",
          "type": "bool"
        }
      ],
      "name": "verifyProject",
      "outputs": [],
      "stateMutability": "nonpayable",
      "type": "function"
    },
    {
      "inputs": [
        {
          "internalType": "address",
          "name": "_companyAddress",
          "type": "address"
        },
        {
          "internalType": "uint256",
          "name": "_amount",
          "type": "uint256"
        }
      ],
      "name": "issueCredits",
      "outputs": [],
      "stateMutability": "nonpayable",
      "type": "function"
    },
    {
      "inputs": [
        {
          "internalType": "address",
          "name": "_companyAddress",
          "type": "address"
        },
        {
          "internalType": "uint256",
          "name": "_amount",
          "type": "uint256"
        }
      ],
      "name": "offsetEmissions",
      "outputs": [],
      "stateMutability": "nonpayable",
      "type": "function"
    }
  ],
  "bytecode": "0x608060405234801561000f575f80fd5b506120c08061001d5f395ff3fe608060405234801561000f575f80fd5b50600436106100cd575f3560e01c80636abb95211161008a578063ad22155111610064578063ad22155114610217578063bd55022a14610233578063d37e414514610251578063e683661714610281576100cd565b80636abb9521146101c357806372af764f146101df5780638e58238c146101fb576100cd565b8063107046bd146100d15780631e6c598e14610106578063225e63171461013b57806331b00f7a14610157578063355e6ce81461017357806336fbad26146101a5575b5f80fd5b6100eb60048036038101906100e6919061129f565b61029d565b6040516100fd969594939291906113a2565b60405180910390f35b610120600480360381019061011b919061129f565b610486565b60405161013296959493929190611416565b60405180910390f35b610155600480360381019061015091906115d9565b610608565b005b610171600480360381019061016c9190611659565b610795565b005b61018d60048036038101906101889190611697565b6108f9565b60405161019c939291906116c2565b60405180910390f35b6101ad610a49565b6040516101ba9190611705565b60405180910390f35b6101dd60048036038101906101d89190611659565b610a4f565b005b6101f960048036038101906101f4919061171e565b610c33565b005b610215600480360381019061021091906117a6565b610d79565b005b610231600480360381019061022c919061129f565b610f62565b005b61023b6110a7565b6040516102489190611705565b60405180910390f35b61026b60048036038101906102669190611697565b6110ad565b6040516102789190611705565b60405180910390f35b61029b60048036038101906102969190611863565b6110c2565b005b6002602052805f5260405f205f91509050805f015490806001015f9054906101000a900473ffffffffffffffffffffffffffffffffffffffff16908060020180546102e7906118ce565b80601f0160208091040260200160405190810160405280929190818152602001828054610313906118ce565b801561035e5780601f106103355761010080835404028352916020019161035e565b820191905f5260205f20905b81548152906001019060200180831161034157829003601f168201915b505050505090806003018054610373906118ce565b80601f016020809104026020016040519081016040528092919081815260200182805461039f906118ce565b80156103ea5780601f106103c1576101008083540402835291602001916103ea565b820191905f5260205f20905b8154815290600101906020018083116103cd57829003601f168201915b5050505050908060040180546103ff906118ce565b80601f016020809104026020016040519081016040528092919081815260200182805461042b906118ce565b80156104765780601f1061044d57610100808354040283529160200191610476565b820191905f5260205f20905b81548152906001019060200180831161045957829003601f168201915b5050505050908060050154905086565b6004602052805f5260405f205f91509050805f015490806001015f9054906101000a900473ffffffffffffffffffffffffffffffffffffffff1690806002015f9054906101000a900473ffffffffffffffffffffffffffffffffffffffff16908060030154908060040180546104fb906118ce565b80601f0160208091040260200160405190810160405280929190818152602001828054610527906118ce565b80156105725780601f1061054957610100808354040283529160200191610572565b820191905f5260205f20905b81548152906001019060200180831161055557829003601f168201915b505050505090806005018054610587906118ce565b80601f01602080910402602001604051908101604052809291908181526020018280546105b3906118ce565b80156105fe5780601f106105d5576101008083540402835291602001916105fe565b820191905f5260205f20905b8154815290600101906020018083116105e157829003601f168201915b5050505050905086565b60055f81548092919061061a9061192b565b91905055506040518060c0016040528060055481526020018573ffffffffffffffffffffffffffffffffffffffff1681526020018473ffffffffffffffffffffffffffffffffffffffff1681526020018381526020018281526020016040518060400160405280600781526020017f437265617465640000000000000000000000000000000000000000000000000081525081525060045f60055481526020019081526020015f205f820151815f01556020820151816001015f6101000a81548173ffffffffffffffffffffffffffffffffffffffff021916908373ffffffffffffffffffffffffffffffffffffffff1602179055506040820151816002015f6101000a81548173ffffffffffffffffffffffffffffffffffffffff021916908373ffffffffffffffffffffffffffffffffffffffff1602179055506060820151816003015560808201518160040190816107759190611b0f565b5060a082015181600501908161078b9190611b0f565b5090505050505050565b5f81116107d7576040517f08c379a00000000000000000000000000000000000000000000000000000000081526004016107ce90611c4e565b60405180910390fd5b5f73ffffffffffffffffffffffffffffffffffffffff165f808473ffffffffffffffffffffffffffffffffffffffff1673ffffffffffffffffffffffffffffffffffffffff1681526020019081526020015f205f015f9054906101000a900473ffffffffffffffffffffffffffffffffffffffff1673ffffffffffffffffffffffffffffffffffffffff16036108a2576040517f08c379a000000000000000000000000000000000000000000000000000000000815260040161089990611cb6565b60405180910390fd5b8060015f8473ffffffffffffffffffffffffffffffffffffffff1673ffffffffffffffffffffffffffffffffffffffff1681526020019081526020015f205f8282546108ee9190611cd4565b925050819055505050565b5f602052805f5260405f205f91509050805f015f9054906101000a900473ffffffffffffffffffffffffffffffffffffffff169080600101805461093c906118ce565b80601f0160208091040260200160405190810160405280929190818152602001828054610968906118ce565b80156109b35780601f1061098a576101008083540402835291602001916109b3565b820191905f5260205f20905b81548152906001019060200180831161099657829003601f168201915b5050505050908060020180546109c8906118ce565b80601f01602080910402602001604051908101604052809291908181526020018280546109f4906118ce565b8015610a3f5780601f10610a1657610100808354040283529160200191610a3f565b820191905f5260205f20905b815481529060010190602001808311610a2257829003601f168201915b5050505050905083565b60035481565b5f8111610a91576040517f08c379a0000000000000000000000000000000000000000000000000000000008152600401610a8890611c4e565b60405180910390fd5b5f73ffffffffffffffffffffffffffffffffffffffff165f808473ffffffffffffffffffffffffffffffffffffffff1673ffffffffffffffffffffffffffffffffffffffff1681526020019081526020015f205f015f9054906101000a900473ffffffffffffffffffffffffffffffffffffffff1673ffffffffffffffffffffffffffffffffffffffff1603610b5c576040517f08c379a0000000000000000000000000000000000000000000000000000000008152600401610b5390611cb6565b60405180910390fd5b8060015f8473ffffffffffffffffffffffffffffffffffffffff1673ffffffffffffffffffffffffffffffffffffffff1681526020019081526020015f20541015610bdc576040517f08c379a0000000000000000000000000000000000000000000000000000000008152600401610bd390611d51565b60405180910390fd5b8060015f8473ffffffffffffffffffffffffffffffffffffffff1673ffffffffffffffffffffffffffffffffffffffff1681526020019081526020015f205f828254610c289190611d6f565b925050819055505050565b60035f815480929190610c459061192b565b91905055506040518060c0016040528060035481526020013373ffffffffffffffffffffffffffffffffffffffff1681526020018481526020018281526020016040518060400160405280601081526020017f50656e64696e6720417070726f76616c0000000000000000000000000000000081525081526020018381525060025f60035481526020019081526020015f205f820151815f01556020820151816001015f6101000a81548173ffffffffffffffffffffffffffffffffffffffff021916908373ffffffffffffffffffffffffffffffffffffffff1602179055506040820151816002019081610d3a9190611b0f565b506060820151816003019081610d509190611b0f565b506080820151816004019081610d669190611b0f565b5060a08201518160050155905050505050565b5f73ffffffffffffffffffffffffffffffffffffffff165f808573ffffffffffffffffffffffffffffffffffffffff1673ffffffffffffffffffffffffffffffffffffffff1681526020019081526020015f205f015f9054906101000a900473ffffffffffffffffffffffffffffffffffffffff1673ffffffffffffffffffffffffffffffffffffffff1614610e44576040517f08c379a0000000000000000000000000000000000000000000000000000000008152600401610e3b90611dec565b60405180910390fd5b60405180606001604052808473ffffffffffffffffffffffffffffffffffffffff168152602001838152602001828152505f808573ffffffffffffffffffffffffffffffffffffffff1673ffffffffffffffffffffffffffffffffffffffff1681526020019081526020015f205f820151815f015f6101000a81548173ffffffffffffffffffffffffffffffffffffffff021916908373ffffffffffffffffffffffffffffffffffffffff1602179055506020820151816001019081610f0a9190611b0f565b506040820151816002019081610f209190611b0f565b509050507f76686aa361308f4a08557cca1a847299ce61e5602a3495cd359a599a1dca438c8383604051610f55929190611e0a565b60405180910390a1505050565b5f81118015610f7357506005548111155b610fb2576040517f08c379a0000000000000000000000000000000000000000000000000000000008152600401610fa990611e82565b60405180910390fd5b5f60045f8381526020019081526020015f2090506040518060400160405280600781526020017f437265617465640000000000000000000000000000000000000000000000000081525080519060200120816005016040516110149190611f3c565b60405180910390201461105c576040517f08c379a000000000000000000000000000000000000000000000000000000000815260040161105390611f9c565b60405180910390fd5b6040518060400160405280600981526020017f436f6d706c6574656400000000000000000000000000000000000000000000008152508160050190816110a29190611b0f565b505050565b60055481565b6001602052805f5260405f205f915090505481565b5f821180156110d357506003548211155b611112576040517f08c379a000000000000000000000000000000000000000000000000000000000815260040161110990612004565b60405180910390fd5b5f60025f8481526020019081526020015f2090506040518060400160405280601081526020017f50656e64696e6720417070726f76616c0000000000000000000000000000000081525080519060200120816004016040516111749190611f3c565b6040518091039020146111bc576040517f08c379a00000000000000000000000000000000000000000000000000000000081526004016111b39061206c565b60405180910390fd5b811561120e576040518060400160405280600881526020017f417070726f7665640000000000000000000000000000000000000000000000008152508160040190816112089190611b0f565b50611256565b6040518060400160405280600881526020017f52656a65637465640000000000000000000000000000000000000000000000008152508160040190816112549190611b0f565b505b505050565b5f604051905090565b5f80fd5b5f80fd5b5f819050919050565b61127e8161126c565b8114611288575f80fd5b50565b5f8135905061129981611275565b92915050565b5f602082840312156112b4576112b3611264565b5b5f6112c18482850161128b565b91505092915050565b6112d38161126c565b82525050565b5f73ffffffffffffffffffffffffffffffffffffffff82169050919050565b5f611302826112d9565b9050919050565b611312816112f8565b82525050565b5f81519050919050565b5f82825260208201905092915050565b5f5b8381101561134f578082015181840152602081019050611334565b5f8484015250505050565b5f601f19601f8301169050919050565b5f61137482611318565b61137e8185611322565b935061138e818560208601611332565b6113978161135a565b840191505092915050565b5f60c0820190506113b55f8301896112ca565b6113c26020830188611309565b81810360408301526113d4818761136a565b905081810360608301526113e8818661136a565b905081810360808301526113fc818561136a565b905061140b60a08301846112ca565b979650505050505050565b5f60c0820190506114295f8301896112ca565b6114366020830188611309565b6114436040830187611309565b61145060608301866112ca565b8181036080830152611462818561136a565b905081810360a0830152611476818461136a565b9050979650505050505050565b61148c816112f8565b8114611496575f80fd5b50565b5f813590506114a781611483565b92915050565b5f80fd5b5f80fd5b7f4e487b71000000000000000000000000000000000000000000000000000000005f52604160045260245ffd5b6114eb8261135a565b810181811067ffffffffffffffff8211171561150a576115096114b5565b5b80604052505050565b5f61151c61125b565b905061152882826114e2565b919050565b5f67ffffffffffffffff821115611547576115466114b5565b5b6115508261135a565b9050602081019050919050565b828183375f83830152505050565b5f61157d6115788461152d565b611513565b905082815260208101848484011115611599576115986114b1565b5b6115a484828561155d565b509392505050565b5f82601f8301126115c0576115bf6114ad565b5b81356115d084826020860161156b565b91505092915050565b5f805f80608085870312156115f1576115f0611264565b5b5f6115fe87828801611499565b945050602061160f87828801611499565b93505060406116208782880161128b565b925050606085013567ffffffffffffffff81111561164157611640611268565b5b61164d878288016115ac565b91505092959194509250565b5f806040838503121561166f5761166e611264565b5b5f61167c85828601611499565b925050602061168d8582860161128b565b9150509250929050565b5f602082840312156116ac576116ab611264565b5b5f6116b984828501611499565b91505092915050565b5f6060820190506116d55f830186611309565b81810360208301526116e7818561136a565b905081810360408301526116fb818461136a565b9050949350505050565b5f6020820190506117185f8301846112ca565b92915050565b5f805f6060848603121561173557611734611264565b5b5f84013567ffffffffffffffff81111561175257611751611268565b5b61175e868287016115ac565b935050602061176f8682870161128b565b925050604084013567ffffffffffffffff8111156117905761178f611268565b5b61179c868287016115ac565b9150509250925092565b5f805f606084860312156117bd576117bc611264565b5b5f6117ca86828701611499565b935050602084013567ffffffffffffffff8111156117eb576117ea611268565b5b6117f7868287016115ac565b925050604084013567ffffffffffffffff81111561181857611817611268565b5b611824868287016115ac565b9150509250925092565b5f8115159050919050565b6118428161182e565b811461184c575f80fd5b50565b5f8135905061185d81611839565b92915050565b5f806040838503121561187957611878611264565b5b5f6118868582860161128b565b92505060206118978582860161184f565b9150509250929050565b7f4e487b71000000000000000000000000000000000000000000000000000000005f52602260045260245ffd5b5f60028204905060018216806118e557607f821691505b6020821081036118f8576118f76118a1565b5b50919050565b7f4e487b71000000000000000000000000000000000000000000000000000000005f52601160045260245ffd5b5f6119358261126c565b91507fffffffffffffffffffffffffffffffffffffffffffffffffffffffffffffffff8203611967576119666118fe565b5b600182019050919050565b5f819050815f5260205f209050919050565b5f6020601f8301049050919050565b5f82821b905092915050565b5f600883026119ce7fffffffffffffffffffffffffffffffffffffffffffffffffffffffffffffffff82611993565b6119d88683611993565b95508019841693508086168417925050509392505050565b5f819050919050565b5f611a13611a0e611a098461126c565b6119f0565b61126c565b9050919050565b5f819050919050565b611a2c836119f9565b611a40611a3882611a1a565b84845461199f565b825550505050565b5f90565b611a54611a48565b611a5f818484611a23565b505050565b5b81811015611a8257611a775f82611a4c565b600181019050611a65565b5050565b601f821115611ac757611a9881611972565b611aa184611984565b81016020851015611ab0578190505b611ac4611abc85611984565b830182611a64565b50505b505050565b5f82821c905092915050565b5f611ae75f1984600802611acc565b1980831691505092915050565b5f611aff8383611ad8565b9150826002028217905092915050565b611b1882611318565b67ffffffffffffffff811115611b3157611b306114b5565b5b611b3b82546118ce565b611b46828285611a86565b5f60209050601f831160018114611b77575f8415611b65578287015190505b611b6f8582611af4565b865550611bd6565b601f198416611b8586611972565b5f5b82811015611bac57848901518255600182019150602085019450602081019050611b87565b86831015611bc95784890151611bc5601f891682611ad8565b8355505b6001600288020188555050505b505050505050565b7f416d6f756e74206d7573742062652067726561746572207468616e207a65726f5f8201527f2e00000000000000000000000000000000000000000000000000000000000000602082015250565b5f611c38602183611322565b9150611c4382611bde565b604082019050919050565b5f6020820190508181035f830152611c6581611c2c565b9050919050565b7f436f6d70616e79206e6f7420726567697374657265642e0000000000000000005f82015250565b5f611ca0601783611322565b9150611cab82611c6c565b602082019050919050565b5f6020820190508181035f830152611ccd81611c94565b9050919050565b5f611cde8261126c565b9150611ce98361126c565b9250828201905080821115611d0157611d006118fe565b5b92915050565b7f496e73756666696369656e7420637265646974732e00000000000000000000005f82015250565b5f611d3b601583611322565b9150611d4682611d07565b602082019050919050565b5f6020820190508181035f830152611d6881611d2f565b9050919050565b5f611d798261126c565b9150611d848361126c565b9250828203905081811115611d9c57611d9b6118fe565b5b92915050565b7f436f6d70616e7920616c726561647920726567697374657265642e00000000005f82015250565b5f611dd6601b83611322565b9150611de182611da2565b602082019050919050565b5f6020820190508181035f830152611e0381611dca565b9050919050565b5f604082019050611e1d5f830185611309565b8181036020830152611e2f818461136a565b90509392505050565b7f547261646520646f6573206e6f742065786973742e00000000000000000000005f82015250565b5f611e6c601583611322565b9150611e7782611e38565b602082019050919050565b5f6020820190508181035f830152611e9981611e60565b9050919050565b5f81905092915050565b5f819050815f5260205f209050919050565b5f8154611ec8816118ce565b611ed28186611ea0565b9450600182165f8114611eec5760018114611f0157611f33565b60ff1983168652811515820286019350611f33565b611f0a85611eaa565b5f5b83811015611f2b57815481890152600182019150602081019050611f0c565b838801955050505b50505092915050565b5f611f478284611ebc565b915081905092915050565b7f5472616465206e6f7420696e20636f7272656374207374617475732e000000005f82015250565b5f611f86601c83611322565b9150611f9182611f52565b602082019050919050565b5f6020820190508181035f830152611fb381611f7a565b9050919050565b7f50726f6a65637420646f6573206e6f742065786973742e0000000000000000005f82015250565b5f611fee601783611322565b9150611ff982611fba565b602082019050919050565b5f6020820190508181035f83015261201b81611fe2565b9050919050565b7f50726f6a656374206e6f742070656e64696e6720617070726f76616c2e0000005f82015250565b5f612056601d83611322565b915061206182612022565b602082019050919050565b5f6020820190508181035f8301526120838161204a565b905091905056fea26469706673582212201b69d9aca93785d77c3659ce2da1fb7a17b18bb4babb9b42dc071355c4860d6b64736f6c63430008150033",
  "immutableReferences": {},
  "source": "// SPDX-License-Identifier: MIT\n// the contract that integrates other contracts\npragma solidity ^0.8.0;\n\nimport \"./Company.sol\";\nimport \"./Project.sol\";\nimport \"./Trade.sol\";\n\ncontract CarbonCredits is CompanyContract, ProjectContract, TradeContract {\n    // Main contract that integrates functionality from Company, Project, and Trade contracts\n\n    // Function to issue credits\n    function issueCredits(address _companyAddress, uint _amount) public {\n        // Validation checks\n        require(_amount > 0, \"Amount must be greater than zero.\");\n        require(companies[_companyAddress].walletAddress != address(0), \"Company not registered.\");\n\n        // Additional logic to ensure only authorized entities (like a regulator) can call this function\n        // For example, using a modifier or checking msg.sender\n\n        // Issue Credits to the company\n        companyCredits[_companyAddress] += _amount;\n        // Emit an event for issuing credits, if necessary\n\n    }\n\n    // Function to offset emissions\n    function offsetEmissions(address _companyAddress, uint _amount) public {\n        // Validation checks\n        require(_amount > 0, \"Amount must be greater than zero.\");\n        require(companies[_companyAddress].walletAddress != address(0), \"Company not registered.\");\n        require(companyCredits[_companyAddress] >= _amount, \"Insufficient credits.\");\n\n        // Additional checks for authorization, if necessary\n\n        // offset emissions by reducing the company's credits\n        companyCredits[_companyAddress] -= _amount;\n\n        // Emit an event for offsetting emissions, if necessary\n    }\n}\n",
  "sourcePath": "/Users/joyce/Desktop/carbon-credit-proj/contracts/CarbonCredits.sol",
  "compiler": {
    "name": "solc",
    "version": "0.8.21+commit.d9974bed.Emscripten.clang"
  },
  "schemaVersion": "3.4.16",
  "updatedAt": "2023-11-27T15:32:25.517Z",
  "devdoc": {
    "kind": "dev",
    "methods": {},
    "version": 1
  },
  "userdoc": {
    "kind": "user",
    "methods": {},
    "version": 1
  }
}