{
  "contractName": "CarbonCredits",
  "abi": [
    {
      "anonymous": false,
      "inputs": [
        {
          "indexed": true,
          "internalType": "address",
          "name": "walletAddress",
          "type": "address"
        },
        {
          "indexed": false,
          "internalType": "uint256",
          "name": "amount",
          "type": "uint256"
        }
      ],
      "name": "CarbonCreditsAdded",
      "type": "event"
    },
    {
      "anonymous": false,
      "inputs": [
        {
          "indexed": true,
          "internalType": "address",
          "name": "walletAddress",
          "type": "address"
        },
        {
          "indexed": false,
          "internalType": "uint256",
          "name": "amount",
          "type": "uint256"
        }
      ],
      "name": "CarbonCreditsDeducted",
      "type": "event"
    },
    {
      "anonymous": false,
      "inputs": [
        {
          "indexed": true,
          "internalType": "address",
          "name": "seller",
          "type": "address"
        },
        {
          "indexed": true,
          "internalType": "address",
          "name": "buyer",
          "type": "address"
        },
        {
          "indexed": false,
          "internalType": "uint256",
          "name": "amount",
          "type": "uint256"
        }
      ],
      "name": "CarbonCreditsTraded",
      "type": "event"
    },
    {
      "anonymous": false,
      "inputs": [
        {
          "indexed": false,
          "internalType": "address",
          "name": "walletAddress",
          "type": "address"
        },
        {
          "indexed": false,
          "internalType": "string",
          "name": "name",
          "type": "string"
        },
        {
          "indexed": false,
          "internalType": "uint256",
          "name": "emissions",
          "type": "uint256"
        }
      ],
      "name": "CompanyRegistered",
      "type": "event"
    },
    {
      "inputs": [
        {
          "internalType": "address",
          "name": "_walletAddress",
          "type": "address"
        },
        {
          "internalType": "uint256",
          "name": "_amount",
          "type": "uint256"
        }
      ],
      "name": "addCarbonCredits",
      "outputs": [],
      "stateMutability": "nonpayable",
      "type": "function"
    },
    {
      "inputs": [
        {
          "internalType": "address",
          "name": "",
          "type": "address"
        }
      ],
      "name": "companies",
      "outputs": [
        {
          "internalType": "address",
          "name": "walletAddress",
          "type": "address"
        },
        {
          "internalType": "string",
          "name": "name",
          "type": "string"
        },
        {
          "internalType": "string",
          "name": "registrationNumber",
          "type": "string"
        },
        {
          "internalType": "uint256",
          "name": "carbonCredits",
          "type": "uint256"
        },
        {
          "internalType": "uint256",
          "name": "emissions",
          "type": "uint256"
        }
      ],
      "stateMutability": "view",
      "type": "function",
      "constant": true
    },
    {
      "inputs": [
        {
          "internalType": "address",
          "name": "",
          "type": "address"
        }
      ],
      "name": "companyCredits",
      "outputs": [
        {
          "internalType": "uint256",
          "name": "",
          "type": "uint256"
        }
      ],
      "stateMutability": "view",
      "type": "function",
      "constant": true
    },
    {
      "inputs": [
        {
          "internalType": "uint256",
          "name": "_tradeId",
          "type": "uint256"
        }
      ],
      "name": "completeTrade",
      "outputs": [],
      "stateMutability": "nonpayable",
      "type": "function"
    },
    {
      "inputs": [
        {
          "internalType": "address",
          "name": "_buyer",
          "type": "address"
        },
        {
          "internalType": "address",
          "name": "_seller",
          "type": "address"
        },
        {
          "internalType": "uint256",
          "name": "_creditsAmount",
          "type": "uint256"
        },
        {
          "internalType": "string",
          "name": "_terms",
          "type": "string"
        }
      ],
      "name": "createTrade",
      "outputs": [],
      "stateMutability": "nonpayable",
      "type": "function"
    },
    {
      "inputs": [
        {
          "internalType": "address",
          "name": "_walletAddress",
          "type": "address"
        },
        {
          "internalType": "uint256",
          "name": "_amount",
          "type": "uint256"
        }
      ],
      "name": "deductCarbonCredits",
      "outputs": [],
      "stateMutability": "nonpayable",
      "type": "function"
    },
    {
      "inputs": [],
      "name": "projectCount",
      "outputs": [
        {
          "internalType": "uint256",
          "name": "",
          "type": "uint256"
        }
      ],
      "stateMutability": "view",
      "type": "function",
      "constant": true
    },
    {
      "inputs": [
        {
          "internalType": "uint256",
          "name": "",
          "type": "uint256"
        }
      ],
      "name": "projects",
      "outputs": [
        {
          "internalType": "uint256",
          "name": "id",
          "type": "uint256"
        },
        {
          "internalType": "address",
          "name": "companyAddress",
          "type": "address"
        },
        {
          "internalType": "string",
          "name": "name",
          "type": "string"
        },
        {
          "internalType": "string",
          "name": "description",
          "type": "string"
        },
        {
          "internalType": "string",
          "name": "status",
          "type": "string"
        },
        {
          "internalType": "uint256",
          "name": "expectedOffsets",
          "type": "uint256"
        }
      ],
      "stateMutability": "view",
      "type": "function",
      "constant": true
    },
    {
      "inputs": [
        {
          "internalType": "address",
          "name": "_walletAddress",
          "type": "address"
        },
        {
          "internalType": "string",
          "name": "_name",
          "type": "string"
        },
        {
          "internalType": "string",
          "name": "_registrationNumber",
          "type": "string"
        },
        {
          "internalType": "uint256",
          "name": "_emissions",
          "type": "uint256"
        }
      ],
      "name": "registerCompany",
      "outputs": [],
      "stateMutability": "nonpayable",
      "type": "function"
    },
    {
      "inputs": [
        {
          "internalType": "string",
          "name": "_projectName",
          "type": "string"
        },
        {
          "internalType": "uint256",
          "name": "_expectedOffsets",
          "type": "uint256"
        },
        {
          "internalType": "string",
          "name": "_description",
          "type": "string"
        }
      ],
      "name": "submitProject",
      "outputs": [],
      "stateMutability": "nonpayable",
      "type": "function"
    },
    {
      "inputs": [
        {
          "internalType": "address",
          "name": "_seller",
          "type": "address"
        },
        {
          "internalType": "address",
          "name": "_buyer",
          "type": "address"
        },
        {
          "internalType": "uint256",
          "name": "_amount",
          "type": "uint256"
        }
      ],
      "name": "tradeCarbonCredits",
      "outputs": [],
      "stateMutability": "nonpayable",
      "type": "function"
    },
    {
      "inputs": [],
      "name": "tradeCount",
      "outputs": [
        {
          "internalType": "uint256",
          "name": "",
          "type": "uint256"
        }
      ],
      "stateMutability": "view",
      "type": "function",
      "constant": true
    },
    {
      "inputs": [
        {
          "internalType": "uint256",
          "name": "",
          "type": "uint256"
        }
      ],
      "name": "trades",
      "outputs": [
        {
          "internalType": "uint256",
          "name": "id",
          "type": "uint256"
        },
        {
          "internalType": "address",
          "name": "buyer",
          "type": "address"
        },
        {
          "internalType": "address",
          "name": "seller",
          "type": "address"
        },
        {
          "internalType": "uint256",
          "name": "creditsAmount",
          "type": "uint256"
        },
        {
          "internalType": "string",
          "name": "terms",
          "type": "string"
        },
        {
          "internalType": "string",
          "name": "status",
          "type": "string"
        }
      ],
      "stateMutability": "view",
      "type": "function",
      "constant": true
    },
    {
      "inputs": [
        {
          "internalType": "uint256",
          "name": "_projectId",
          "type": "uint256"
        },
        {
          "internalType": "bool",
          "name": "_isApproved",
          "type": "bool"
        }
      ],
      "name": "verifyProject",
      "outputs": [],
      "stateMutability": "nonpayable",
      "type": "function"
    },
    {
      "inputs": [
        {
          "internalType": "address",
          "name": "_companyAddress",
          "type": "address"
        },
        {
          "internalType": "uint256",
          "name": "_amount",
          "type": "uint256"
        }
      ],
      "name": "issueCredits",
      "outputs": [],
      "stateMutability": "nonpayable",
      "type": "function"
    },
    {
      "inputs": [
        {
          "internalType": "address",
          "name": "_companyAddress",
          "type": "address"
        },
        {
          "internalType": "uint256",
          "name": "_amount",
          "type": "uint256"
        }
      ],
      "name": "offsetEmissions",
      "outputs": [],
      "stateMutability": "nonpayable",
      "type": "function"
    }
  ],
  "bytecode": "0x608060405234801561000f575f80fd5b50612a068061001d5f395ff3fe608060405234801561000f575f80fd5b50600436106100fe575f3560e01c806372af764f11610095578063c7eacca911610064578063c7eacca9146102a0578063d37e4145146102bc578063e6836617146102ec578063efae586614610308576100fe565b806372af764f1461022e578063874856e61461024a578063ad22155114610266578063bd55022a14610282576100fe565b806331b00f7a116100d157806331b00f7a146101a4578063355e6ce8146101c057806336fbad26146101f45780636abb952114610212576100fe565b8063107046bd146101025780631e6c598e14610137578063225e63171461016c5780632961a90714610188575b5f80fd5b61011c600480360381019061011791906119f9565b610324565b60405161012e96959493929190611afc565b60405180910390f35b610151600480360381019061014c91906119f9565b61050d565b60405161016396959493929190611b70565b60405180910390f35b61018660048036038101906101819190611d33565b61068f565b005b6101a2600480360381019061019d9190611db3565b61081c565b005b6101be60048036038101906101b99190611e4f565b610a3a565b005b6101da60048036038101906101d59190611e8d565b610b9e565b6040516101eb959493929190611eb8565b60405180910390f35b6101fc610cfa565b6040516102099190611f17565b60405180910390f35b61022c60048036038101906102279190611e4f565b610d00565b005b61024860048036038101906102439190611f30565b610ee4565b005b610264600480360381019061025f9190611fb8565b61102a565b005b610280600480360381019061027b91906119f9565b611356565b005b61028a61149b565b6040516102979190611f17565b60405180910390f35b6102ba60048036038101906102b59190611e4f565b6114a1565b005b6102d660048036038101906102d19190611e8d565b611695565b6040516102e39190611f17565b60405180910390f35b6103066004803603810190610301919061203d565b6116aa565b005b610322600480360381019061031d9190611e4f565b611843565b005b6002602052805f5260405f205f91509050805f015490806001015f9054906101000a900473ffffffffffffffffffffffffffffffffffffffff169080600201805461036e906120a8565b80601f016020809104026020016040519081016040528092919081815260200182805461039a906120a8565b80156103e55780601f106103bc576101008083540402835291602001916103e5565b820191905f5260205f20905b8154815290600101906020018083116103c857829003601f168201915b5050505050908060030180546103fa906120a8565b80601f0160208091040260200160405190810160405280929190818152602001828054610426906120a8565b80156104715780601f1061044857610100808354040283529160200191610471565b820191905f5260205f20905b81548152906001019060200180831161045457829003601f168201915b505050505090806004018054610486906120a8565b80601f01602080910402602001604051908101604052809291908181526020018280546104b2906120a8565b80156104fd5780601f106104d4576101008083540402835291602001916104fd565b820191905f5260205f20905b8154815290600101906020018083116104e057829003601f168201915b5050505050908060050154905086565b6004602052805f5260405f205f91509050805f015490806001015f9054906101000a900473ffffffffffffffffffffffffffffffffffffffff1690806002015f9054906101000a900473ffffffffffffffffffffffffffffffffffffffff1690806003015490806004018054610582906120a8565b80601f01602080910402602001604051908101604052809291908181526020018280546105ae906120a8565b80156105f95780601f106105d0576101008083540402835291602001916105f9565b820191905f5260205f20905b8154815290600101906020018083116105dc57829003601f168201915b50505050509080600501805461060e906120a8565b80601f016020809104026020016040519081016040528092919081815260200182805461063a906120a8565b80156106855780601f1061065c57610100808354040283529160200191610685565b820191905f5260205f20905b81548152906001019060200180831161066857829003601f168201915b5050505050905086565b60055f8154809291906106a190612105565b91905055506040518060c0016040528060055481526020018573ffffffffffffffffffffffffffffffffffffffff1681526020018473ffffffffffffffffffffffffffffffffffffffff1681526020018381526020018281526020016040518060400160405280600781526020017f437265617465640000000000000000000000000000000000000000000000000081525081525060045f60055481526020019081526020015f205f820151815f01556020820151816001015f6101000a81548173ffffffffffffffffffffffffffffffffffffffff021916908373ffffffffffffffffffffffffffffffffffffffff1602179055506040820151816002015f6101000a81548173ffffffffffffffffffffffffffffffffffffffff021916908373ffffffffffffffffffffffffffffffffffffffff1602179055506060820151816003015560808201518160040190816107fc91906122e9565b5060a082015181600501908161081291906122e9565b5090505050505050565b5f805f8673ffffffffffffffffffffffffffffffffffffffff1673ffffffffffffffffffffffffffffffffffffffff1681526020019081526020015f2090505f73ffffffffffffffffffffffffffffffffffffffff16815f015f9054906101000a900473ffffffffffffffffffffffffffffffffffffffff1673ffffffffffffffffffffffffffffffffffffffff16036109ef576040518060a001604052808673ffffffffffffffffffffffffffffffffffffffff1681526020018581526020018481526020015f8152602001838152505f808773ffffffffffffffffffffffffffffffffffffffff1673ffffffffffffffffffffffffffffffffffffffff1681526020019081526020015f205f820151815f015f6101000a81548173ffffffffffffffffffffffffffffffffffffffff021916908373ffffffffffffffffffffffffffffffffffffffff160217905550602082015181600101908161098291906122e9565b50604082015181600201908161099891906122e9565b5060608201518160030155608082015181600401559050507e78dab93f1aeefc09535aa58402d91dde97c29a340cd7a0a57e12529c94e2148585846040516109e2939291906123b8565b60405180910390a1610a33565b8181600401819055507e78dab93f1aeefc09535aa58402d91dde97c29a340cd7a0a57e12529c94e214858584604051610a2a939291906123b8565b60405180910390a15b5050505050565b5f8111610a7c576040517f08c379a0000000000000000000000000000000000000000000000000000000008152600401610a7390612464565b60405180910390fd5b5f73ffffffffffffffffffffffffffffffffffffffff165f808473ffffffffffffffffffffffffffffffffffffffff1673ffffffffffffffffffffffffffffffffffffffff1681526020019081526020015f205f015f9054906101000a900473ffffffffffffffffffffffffffffffffffffffff1673ffffffffffffffffffffffffffffffffffffffff1603610b47576040517f08c379a0000000000000000000000000000000000000000000000000000000008152600401610b3e906124cc565b60405180910390fd5b8060015f8473ffffffffffffffffffffffffffffffffffffffff1673ffffffffffffffffffffffffffffffffffffffff1681526020019081526020015f205f828254610b9391906124ea565b925050819055505050565b5f602052805f5260405f205f91509050805f015f9054906101000a900473ffffffffffffffffffffffffffffffffffffffff1690806001018054610be1906120a8565b80601f0160208091040260200160405190810160405280929190818152602001828054610c0d906120a8565b8015610c585780601f10610c2f57610100808354040283529160200191610c58565b820191905f5260205f20905b815481529060010190602001808311610c3b57829003601f168201915b505050505090806002018054610c6d906120a8565b80601f0160208091040260200160405190810160405280929190818152602001828054610c99906120a8565b8015610ce45780601f10610cbb57610100808354040283529160200191610ce4565b820191905f5260205f20905b815481529060010190602001808311610cc757829003601f168201915b5050505050908060030154908060040154905085565b60035481565b5f8111610d42576040517f08c379a0000000000000000000000000000000000000000000000000000000008152600401610d3990612464565b60405180910390fd5b5f73ffffffffffffffffffffffffffffffffffffffff165f808473ffffffffffffffffffffffffffffffffffffffff1673ffffffffffffffffffffffffffffffffffffffff1681526020019081526020015f205f015f9054906101000a900473ffffffffffffffffffffffffffffffffffffffff1673ffffffffffffffffffffffffffffffffffffffff1603610e0d576040517f08c379a0000000000000000000000000000000000000000000000000000000008152600401610e04906124cc565b60405180910390fd5b8060015f8473ffffffffffffffffffffffffffffffffffffffff1673ffffffffffffffffffffffffffffffffffffffff1681526020019081526020015f20541015610e8d576040517f08c379a0000000000000000000000000000000000000000000000000000000008152600401610e8490612567565b60405180910390fd5b8060015f8473ffffffffffffffffffffffffffffffffffffffff1673ffffffffffffffffffffffffffffffffffffffff1681526020019081526020015f205f828254610ed99190612585565b925050819055505050565b60035f815480929190610ef690612105565b91905055506040518060c0016040528060035481526020013373ffffffffffffffffffffffffffffffffffffffff1681526020018481526020018281526020016040518060400160405280601081526020017f50656e64696e6720417070726f76616c0000000000000000000000000000000081525081526020018381525060025f60035481526020019081526020015f205f820151815f01556020820151816001015f6101000a81548173ffffffffffffffffffffffffffffffffffffffff021916908373ffffffffffffffffffffffffffffffffffffffff1602179055506040820151816002019081610feb91906122e9565b50606082015181600301908161100191906122e9565b50608082015181600401908161101791906122e9565b5060a08201518160050155905050505050565b5f73ffffffffffffffffffffffffffffffffffffffff165f808573ffffffffffffffffffffffffffffffffffffffff1673ffffffffffffffffffffffffffffffffffffffff1681526020019081526020015f205f015f9054906101000a900473ffffffffffffffffffffffffffffffffffffffff1673ffffffffffffffffffffffffffffffffffffffff16036110f5576040517f08c379a00000000000000000000000000000000000000000000000000000000081526004016110ec90612602565b60405180910390fd5b5f73ffffffffffffffffffffffffffffffffffffffff165f808473ffffffffffffffffffffffffffffffffffffffff1673ffffffffffffffffffffffffffffffffffffffff1681526020019081526020015f205f015f9054906101000a900473ffffffffffffffffffffffffffffffffffffffff1673ffffffffffffffffffffffffffffffffffffffff16036111c0576040517f08c379a00000000000000000000000000000000000000000000000000000000081526004016111b79061266a565b60405180910390fd5b805f808573ffffffffffffffffffffffffffffffffffffffff1673ffffffffffffffffffffffffffffffffffffffff1681526020019081526020015f20600301541015611242576040517f08c379a0000000000000000000000000000000000000000000000000000000008152600401611239906126f8565b60405180910390fd5b805f808573ffffffffffffffffffffffffffffffffffffffff1673ffffffffffffffffffffffffffffffffffffffff1681526020019081526020015f206003015f8282546112909190612585565b92505081905550805f808473ffffffffffffffffffffffffffffffffffffffff1673ffffffffffffffffffffffffffffffffffffffff1681526020019081526020015f206003015f8282546112e591906124ea565b925050819055508173ffffffffffffffffffffffffffffffffffffffff168373ffffffffffffffffffffffffffffffffffffffff167fa6d0e191067785d8045a4c6118c0bba4f765bdee910cf42f887dec9859b9e9aa836040516113499190611f17565b60405180910390a3505050565b5f8111801561136757506005548111155b6113a6576040517f08c379a000000000000000000000000000000000000000000000000000000000815260040161139d90612760565b60405180910390fd5b5f60045f8381526020019081526020015f2090506040518060400160405280600781526020017f43726561746564000000000000000000000000000000000000000000000000008152508051906020012081600501604051611408919061281a565b604051809103902014611450576040517f08c379a00000000000000000000000000000000000000000000000000000000081526004016114479061287a565b60405180910390fd5b6040518060400160405280600981526020017f436f6d706c65746564000000000000000000000000000000000000000000000081525081600501908161149691906122e9565b505050565b60055481565b5f73ffffffffffffffffffffffffffffffffffffffff165f808473ffffffffffffffffffffffffffffffffffffffff1673ffffffffffffffffffffffffffffffffffffffff1681526020019081526020015f205f015f9054906101000a900473ffffffffffffffffffffffffffffffffffffffff1673ffffffffffffffffffffffffffffffffffffffff160361156c576040517f08c379a0000000000000000000000000000000000000000000000000000000008152600401611563906124cc565b60405180910390fd5b805f808473ffffffffffffffffffffffffffffffffffffffff1673ffffffffffffffffffffffffffffffffffffffff1681526020019081526020015f206003015410156115ee576040517f08c379a00000000000000000000000000000000000000000000000000000000081526004016115e5906128e2565b60405180910390fd5b805f808473ffffffffffffffffffffffffffffffffffffffff1673ffffffffffffffffffffffffffffffffffffffff1681526020019081526020015f206003015f82825461163c9190612585565b925050819055508173ffffffffffffffffffffffffffffffffffffffff167fd060d70a4e4c862c9b406a8d65b43e2d776c561d2584f38452c305efd45f655b826040516116899190611f17565b60405180910390a25050565b6001602052805f5260405f205f915090505481565b5f821180156116bb57506003548211155b6116fa576040517f08c379a00000000000000000000000000000000000000000000000000000000081526004016116f19061294a565b60405180910390fd5b5f60025f8481526020019081526020015f2090506040518060400160405280601081526020017f50656e64696e6720417070726f76616c00000000000000000000000000000000815250805190602001208160040160405161175c919061281a565b6040518091039020146117a4576040517f08c379a000000000000000000000000000000000000000000000000000000000815260040161179b906129b2565b60405180910390fd5b81156117f6576040518060400160405280600881526020017f417070726f7665640000000000000000000000000000000000000000000000008152508160040190816117f091906122e9565b5061183e565b6040518060400160405280600881526020017f52656a656374656400000000000000000000000000000000000000000000000081525081600401908161183c91906122e9565b505b505050565b5f73ffffffffffffffffffffffffffffffffffffffff165f808473ffffffffffffffffffffffffffffffffffffffff1673ffffffffffffffffffffffffffffffffffffffff1681526020019081526020015f205f015f9054906101000a900473ffffffffffffffffffffffffffffffffffffffff1673ffffffffffffffffffffffffffffffffffffffff160361190e576040517f08c379a0000000000000000000000000000000000000000000000000000000008152600401611905906124cc565b60405180910390fd5b805f808473ffffffffffffffffffffffffffffffffffffffff1673ffffffffffffffffffffffffffffffffffffffff1681526020019081526020015f206003015f82825461195c91906124ea565b925050819055508173ffffffffffffffffffffffffffffffffffffffff167f1fb0700c613db30cd4de48e588ed2839815da65b8879f385d0fbb1718d8020f7826040516119a99190611f17565b60405180910390a25050565b5f604051905090565b5f80fd5b5f80fd5b5f819050919050565b6119d8816119c6565b81146119e2575f80fd5b50565b5f813590506119f3816119cf565b92915050565b5f60208284031215611a0e57611a0d6119be565b5b5f611a1b848285016119e5565b91505092915050565b611a2d816119c6565b82525050565b5f73ffffffffffffffffffffffffffffffffffffffff82169050919050565b5f611a5c82611a33565b9050919050565b611a6c81611a52565b82525050565b5f81519050919050565b5f82825260208201905092915050565b5f5b83811015611aa9578082015181840152602081019050611a8e565b5f8484015250505050565b5f601f19601f8301169050919050565b5f611ace82611a72565b611ad88185611a7c565b9350611ae8818560208601611a8c565b611af181611ab4565b840191505092915050565b5f60c082019050611b0f5f830189611a24565b611b1c6020830188611a63565b8181036040830152611b2e8187611ac4565b90508181036060830152611b428186611ac4565b90508181036080830152611b568185611ac4565b9050611b6560a0830184611a24565b979650505050505050565b5f60c082019050611b835f830189611a24565b611b906020830188611a63565b611b9d6040830187611a63565b611baa6060830186611a24565b8181036080830152611bbc8185611ac4565b905081810360a0830152611bd08184611ac4565b9050979650505050505050565b611be681611a52565b8114611bf0575f80fd5b50565b5f81359050611c0181611bdd565b92915050565b5f80fd5b5f80fd5b7f4e487b71000000000000000000000000000000000000000000000000000000005f52604160045260245ffd5b611c4582611ab4565b810181811067ffffffffffffffff82111715611c6457611c63611c0f565b5b80604052505050565b5f611c766119b5565b9050611c828282611c3c565b919050565b5f67ffffffffffffffff821115611ca157611ca0611c0f565b5b611caa82611ab4565b9050602081019050919050565b828183375f83830152505050565b5f611cd7611cd284611c87565b611c6d565b905082815260208101848484011115611cf357611cf2611c0b565b5b611cfe848285611cb7565b509392505050565b5f82601f830112611d1a57611d19611c07565b5b8135611d2a848260208601611cc5565b91505092915050565b5f805f8060808587031215611d4b57611d4a6119be565b5b5f611d5887828801611bf3565b9450506020611d6987828801611bf3565b9350506040611d7a878288016119e5565b925050606085013567ffffffffffffffff811115611d9b57611d9a6119c2565b5b611da787828801611d06565b91505092959194509250565b5f805f8060808587031215611dcb57611dca6119be565b5b5f611dd887828801611bf3565b945050602085013567ffffffffffffffff811115611df957611df86119c2565b5b611e0587828801611d06565b935050604085013567ffffffffffffffff811115611e2657611e256119c2565b5b611e3287828801611d06565b9250506060611e43878288016119e5565b91505092959194509250565b5f8060408385031215611e6557611e646119be565b5b5f611e7285828601611bf3565b9250506020611e83858286016119e5565b9150509250929050565b5f60208284031215611ea257611ea16119be565b5b5f611eaf84828501611bf3565b91505092915050565b5f60a082019050611ecb5f830188611a63565b8181036020830152611edd8187611ac4565b90508181036040830152611ef18186611ac4565b9050611f006060830185611a24565b611f0d6080830184611a24565b9695505050505050565b5f602082019050611f2a5f830184611a24565b92915050565b5f805f60608486031215611f4757611f466119be565b5b5f84013567ffffffffffffffff811115611f6457611f636119c2565b5b611f7086828701611d06565b9350506020611f81868287016119e5565b925050604084013567ffffffffffffffff811115611fa257611fa16119c2565b5b611fae86828701611d06565b9150509250925092565b5f805f60608486031215611fcf57611fce6119be565b5b5f611fdc86828701611bf3565b9350506020611fed86828701611bf3565b9250506040611ffe868287016119e5565b9150509250925092565b5f8115159050919050565b61201c81612008565b8114612026575f80fd5b50565b5f8135905061203781612013565b92915050565b5f8060408385031215612053576120526119be565b5b5f612060858286016119e5565b925050602061207185828601612029565b9150509250929050565b7f4e487b71000000000000000000000000000000000000000000000000000000005f52602260045260245ffd5b5f60028204905060018216806120bf57607f821691505b6020821081036120d2576120d161207b565b5b50919050565b7f4e487b71000000000000000000000000000000000000000000000000000000005f52601160045260245ffd5b5f61210f826119c6565b91507fffffffffffffffffffffffffffffffffffffffffffffffffffffffffffffffff8203612141576121406120d8565b5b600182019050919050565b5f819050815f5260205f209050919050565b5f6020601f8301049050919050565b5f82821b905092915050565b5f600883026121a87fffffffffffffffffffffffffffffffffffffffffffffffffffffffffffffffff8261216d565b6121b2868361216d565b95508019841693508086168417925050509392505050565b5f819050919050565b5f6121ed6121e86121e3846119c6565b6121ca565b6119c6565b9050919050565b5f819050919050565b612206836121d3565b61221a612212826121f4565b848454612179565b825550505050565b5f90565b61222e612222565b6122398184846121fd565b505050565b5b8181101561225c576122515f82612226565b60018101905061223f565b5050565b601f8211156122a1576122728161214c565b61227b8461215e565b8101602085101561228a578190505b61229e6122968561215e565b83018261223e565b50505b505050565b5f82821c905092915050565b5f6122c15f19846008026122a6565b1980831691505092915050565b5f6122d983836122b2565b9150826002028217905092915050565b6122f282611a72565b67ffffffffffffffff81111561230b5761230a611c0f565b5b61231582546120a8565b612320828285612260565b5f60209050601f831160018114612351575f841561233f578287015190505b61234985826122ce565b8655506123b0565b601f19841661235f8661214c565b5f5b8281101561238657848901518255600182019150602085019450602081019050612361565b868310156123a3578489015161239f601f8916826122b2565b8355505b6001600288020188555050505b505050505050565b5f6060820190506123cb5f830186611a63565b81810360208301526123dd8185611ac4565b90506123ec6040830184611a24565b949350505050565b7f416d6f756e74206d7573742062652067726561746572207468616e207a65726f5f8201527f2e00000000000000000000000000000000000000000000000000000000000000602082015250565b5f61244e602183611a7c565b9150612459826123f4565b604082019050919050565b5f6020820190508181035f83015261247b81612442565b9050919050565b7f436f6d70616e79206e6f7420726567697374657265642e0000000000000000005f82015250565b5f6124b6601783611a7c565b91506124c182612482565b602082019050919050565b5f6020820190508181035f8301526124e3816124aa565b9050919050565b5f6124f4826119c6565b91506124ff836119c6565b9250828201905080821115612517576125166120d8565b5b92915050565b7f496e73756666696369656e7420637265646974732e00000000000000000000005f82015250565b5f612551601583611a7c565b915061255c8261251d565b602082019050919050565b5f6020820190508181035f83015261257e81612545565b9050919050565b5f61258f826119c6565b915061259a836119c6565b92508282039050818111156125b2576125b16120d8565b5b92915050565b7f53656c6c6572206e6f7420726567697374657265642e000000000000000000005f82015250565b5f6125ec601683611a7c565b91506125f7826125b8565b602082019050919050565b5f6020820190508181035f830152612619816125e0565b9050919050565b7f4275796572206e6f7420726567697374657265642e00000000000000000000005f82015250565b5f612654601583611a7c565b915061265f82612620565b602082019050919050565b5f6020820190508181035f83015261268181612648565b9050919050565b7f53656c6c657220646f6573206e6f74206861766520656e6f75676820636172625f8201527f6f6e20637265646974732e000000000000000000000000000000000000000000602082015250565b5f6126e2602b83611a7c565b91506126ed82612688565b604082019050919050565b5f6020820190508181035f83015261270f816126d6565b9050919050565b7f547261646520646f6573206e6f742065786973742e00000000000000000000005f82015250565b5f61274a601583611a7c565b915061275582612716565b602082019050919050565b5f6020820190508181035f8301526127778161273e565b9050919050565b5f81905092915050565b5f819050815f5260205f209050919050565b5f81546127a6816120a8565b6127b0818661277e565b9450600182165f81146127ca57600181146127df57612811565b60ff1983168652811515820286019350612811565b6127e885612788565b5f5b83811015612809578154818901526001820191506020810190506127ea565b838801955050505b50505092915050565b5f612825828461279a565b915081905092915050565b7f5472616465206e6f7420696e20636f7272656374207374617475732e000000005f82015250565b5f612864601c83611a7c565b915061286f82612830565b602082019050919050565b5f6020820190508181035f83015261289181612858565b9050919050565b7f4e6f7420656e6f75676820636172626f6e20637265646974732e0000000000005f82015250565b5f6128cc601a83611a7c565b91506128d782612898565b602082019050919050565b5f6020820190508181035f8301526128f9816128c0565b9050919050565b7f50726f6a65637420646f6573206e6f742065786973742e0000000000000000005f82015250565b5f612934601783611a7c565b915061293f82612900565b602082019050919050565b5f6020820190508181035f83015261296181612928565b9050919050565b7f50726f6a656374206e6f742070656e64696e6720617070726f76616c2e0000005f82015250565b5f61299c601d83611a7c565b91506129a782612968565b602082019050919050565b5f6020820190508181035f8301526129c981612990565b905091905056fea2646970667358221220fa179d364ec49da9fb4969d73462b28ae36b46c32b2f3ebde81908c1832e40f464736f6c63430008150033",
  "immutableReferences": {},
  "source": "// SPDX-License-Identifier: MIT\n// the contract that integrates other contracts\npragma solidity ^0.8.0;\n\nimport \"./CompanyContract.sol\";\nimport \"./ProjectContract.sol\";\nimport \"./TradeContract.sol\";\n\ncontract CarbonCredits is CompanyContract, ProjectContract, TradeContract {\n    // Main contract that integrates functionality from Company, Project, and Trade contracts\n\n    // Function to issue credits\n    function issueCredits(address _companyAddress, uint _amount) public {\n        // Validation checks\n        require(_amount > 0, \"Amount must be greater than zero.\");\n        require(companies[_companyAddress].walletAddress != address(0), \"Company not registered.\");\n\n        // Additional logic to ensure only authorized entities (like a regulator) can call this function\n        // For example, using a modifier or checking msg.sender\n\n        // Issue Credits to the company\n        companyCredits[_companyAddress] += _amount;\n        // Emit an event for issuing credits, if necessary\n\n    }\n\n    // Function to offset emissions\n    function offsetEmissions(address _companyAddress, uint _amount) public {\n        // Validation checks\n        require(_amount > 0, \"Amount must be greater than zero.\");\n        require(companies[_companyAddress].walletAddress != address(0), \"Company not registered.\");\n        require(companyCredits[_companyAddress] >= _amount, \"Insufficient credits.\");\n\n        // Additional checks for authorization, if necessary\n\n        // offset emissions by reducing the company's credits\n        companyCredits[_companyAddress] -= _amount;\n\n        // Emit an event for offsetting emissions, if necessary\n    }\n}\n",
  "sourcePath": "/Users/joyce/Desktop/carbon-credit-proj/contracts/CarbonCredits.sol",
  "compiler": {
    "name": "solc",
    "version": "0.8.21+commit.d9974bed.Emscripten.clang"
  },
  "schemaVersion": "3.4.16",
  "updatedAt": "2023-12-04T17:11:41.595Z",
  "networkType": "ethereum",
  "devdoc": {
    "kind": "dev",
    "methods": {},
    "version": 1
  },
  "userdoc": {
    "kind": "user",
    "methods": {},
    "version": 1
  }
}