{
  "contractName": "CompanyContract",
  "abi": [
    {
      "anonymous": false,
      "inputs": [
        {
          "indexed": true,
          "internalType": "address",
          "name": "walletAddress",
          "type": "address"
        },
        {
          "indexed": false,
          "internalType": "uint256",
          "name": "amount",
          "type": "uint256"
        }
      ],
      "name": "CarbonCreditsAdded",
      "type": "event"
    },
    {
      "anonymous": false,
      "inputs": [
        {
          "indexed": true,
          "internalType": "address",
          "name": "walletAddress",
          "type": "address"
        },
        {
          "indexed": false,
          "internalType": "uint256",
          "name": "amount",
          "type": "uint256"
        }
      ],
      "name": "CarbonCreditsDeducted",
      "type": "event"
    },
    {
      "anonymous": false,
      "inputs": [
        {
          "indexed": true,
          "internalType": "address",
          "name": "seller",
          "type": "address"
        },
        {
          "indexed": true,
          "internalType": "address",
          "name": "buyer",
          "type": "address"
        },
        {
          "indexed": false,
          "internalType": "uint256",
          "name": "amount",
          "type": "uint256"
        }
      ],
      "name": "CarbonCreditsTraded",
      "type": "event"
    },
    {
      "anonymous": false,
      "inputs": [
        {
          "indexed": false,
          "internalType": "address",
          "name": "walletAddress",
          "type": "address"
        },
        {
          "indexed": false,
          "internalType": "string",
          "name": "name",
          "type": "string"
        },
        {
          "indexed": false,
          "internalType": "uint256",
          "name": "emissions",
          "type": "uint256"
        }
      ],
      "name": "CompanyRegistered",
      "type": "event"
    },
    {
      "inputs": [
        {
          "internalType": "address",
          "name": "",
          "type": "address"
        }
      ],
      "name": "companies",
      "outputs": [
        {
          "internalType": "address",
          "name": "walletAddress",
          "type": "address"
        },
        {
          "internalType": "string",
          "name": "name",
          "type": "string"
        },
        {
          "internalType": "string",
          "name": "registrationNumber",
          "type": "string"
        },
        {
          "internalType": "uint256",
          "name": "carbonCredits",
          "type": "uint256"
        },
        {
          "internalType": "uint256",
          "name": "emissions",
          "type": "uint256"
        }
      ],
      "stateMutability": "view",
      "type": "function",
      "constant": true
    },
    {
      "inputs": [
        {
          "internalType": "address",
          "name": "",
          "type": "address"
        }
      ],
      "name": "companyCredits",
      "outputs": [
        {
          "internalType": "uint256",
          "name": "",
          "type": "uint256"
        }
      ],
      "stateMutability": "view",
      "type": "function",
      "constant": true
    },
    {
      "inputs": [
        {
          "internalType": "address",
          "name": "_walletAddress",
          "type": "address"
        },
        {
          "internalType": "string",
          "name": "_name",
          "type": "string"
        },
        {
          "internalType": "string",
          "name": "_registrationNumber",
          "type": "string"
        },
        {
          "internalType": "uint256",
          "name": "_emissions",
          "type": "uint256"
        }
      ],
      "name": "registerCompany",
      "outputs": [],
      "stateMutability": "nonpayable",
      "type": "function"
    },
    {
      "inputs": [
        {
          "internalType": "address",
          "name": "_walletAddress",
          "type": "address"
        },
        {
          "internalType": "uint256",
          "name": "_amount",
          "type": "uint256"
        }
      ],
      "name": "addCarbonCredits",
      "outputs": [],
      "stateMutability": "nonpayable",
      "type": "function"
    },
    {
      "inputs": [
        {
          "internalType": "address",
          "name": "_walletAddress",
          "type": "address"
        },
        {
          "internalType": "uint256",
          "name": "_amount",
          "type": "uint256"
        }
      ],
      "name": "deductCarbonCredits",
      "outputs": [],
      "stateMutability": "nonpayable",
      "type": "function"
    },
    {
      "inputs": [
        {
          "internalType": "address",
          "name": "_seller",
          "type": "address"
        },
        {
          "internalType": "address",
          "name": "_buyer",
          "type": "address"
        },
        {
          "internalType": "uint256",
          "name": "_amount",
          "type": "uint256"
        }
      ],
      "name": "tradeCarbonCredits",
      "outputs": [],
      "stateMutability": "nonpayable",
      "type": "function"
    }
  ],
  "bytecode": "0x608060405234801561000f575f80fd5b506115948061001d5f395ff3fe608060405234801561000f575f80fd5b5060043610610060575f3560e01c80632961a90714610064578063355e6ce814610080578063874856e6146100b4578063c7eacca9146100d0578063d37e4145146100ec578063efae58661461011c575b5f80fd5b61007e60048036038101906100799190610d33565b610138565b005b61009a60048036038101906100959190610dcf565b610356565b6040516100ab959493929190610e92565b60405180910390f35b6100ce60048036038101906100c99190610ef1565b6104b2565b005b6100ea60048036038101906100e59190610f41565b6107de565b005b61010660048036038101906101019190610dcf565b6109d2565b6040516101139190610f7f565b60405180910390f35b61013660048036038101906101319190610f41565b6109e7565b005b5f805f8673ffffffffffffffffffffffffffffffffffffffff1673ffffffffffffffffffffffffffffffffffffffff1681526020019081526020015f2090505f73ffffffffffffffffffffffffffffffffffffffff16815f015f9054906101000a900473ffffffffffffffffffffffffffffffffffffffff1673ffffffffffffffffffffffffffffffffffffffff160361030b576040518060a001604052808673ffffffffffffffffffffffffffffffffffffffff1681526020018581526020018481526020015f8152602001838152505f808773ffffffffffffffffffffffffffffffffffffffff1673ffffffffffffffffffffffffffffffffffffffff1681526020019081526020015f205f820151815f015f6101000a81548173ffffffffffffffffffffffffffffffffffffffff021916908373ffffffffffffffffffffffffffffffffffffffff160217905550602082015181600101908161029e9190611192565b5060408201518160020190816102b49190611192565b5060608201518160030155608082015181600401559050507e78dab93f1aeefc09535aa58402d91dde97c29a340cd7a0a57e12529c94e2148585846040516102fe93929190611261565b60405180910390a161034f565b8181600401819055507e78dab93f1aeefc09535aa58402d91dde97c29a340cd7a0a57e12529c94e21485858460405161034693929190611261565b60405180910390a15b5050505050565b5f602052805f5260405f205f91509050805f015f9054906101000a900473ffffffffffffffffffffffffffffffffffffffff169080600101805461039990610fc5565b80601f01602080910402602001604051908101604052809291908181526020018280546103c590610fc5565b80156104105780601f106103e757610100808354040283529160200191610410565b820191905f5260205f20905b8154815290600101906020018083116103f357829003601f168201915b50505050509080600201805461042590610fc5565b80601f016020809104026020016040519081016040528092919081815260200182805461045190610fc5565b801561049c5780601f106104735761010080835404028352916020019161049c565b820191905f5260205f20905b81548152906001019060200180831161047f57829003601f168201915b5050505050908060030154908060040154905085565b5f73ffffffffffffffffffffffffffffffffffffffff165f808573ffffffffffffffffffffffffffffffffffffffff1673ffffffffffffffffffffffffffffffffffffffff1681526020019081526020015f205f015f9054906101000a900473ffffffffffffffffffffffffffffffffffffffff1673ffffffffffffffffffffffffffffffffffffffff160361057d576040517f08c379a0000000000000000000000000000000000000000000000000000000008152600401610574906112e7565b60405180910390fd5b5f73ffffffffffffffffffffffffffffffffffffffff165f808473ffffffffffffffffffffffffffffffffffffffff1673ffffffffffffffffffffffffffffffffffffffff1681526020019081526020015f205f015f9054906101000a900473ffffffffffffffffffffffffffffffffffffffff1673ffffffffffffffffffffffffffffffffffffffff1603610648576040517f08c379a000000000000000000000000000000000000000000000000000000000815260040161063f9061134f565b60405180910390fd5b805f808573ffffffffffffffffffffffffffffffffffffffff1673ffffffffffffffffffffffffffffffffffffffff1681526020019081526020015f206003015410156106ca576040517f08c379a00000000000000000000000000000000000000000000000000000000081526004016106c1906113dd565b60405180910390fd5b805f808573ffffffffffffffffffffffffffffffffffffffff1673ffffffffffffffffffffffffffffffffffffffff1681526020019081526020015f206003015f8282546107189190611428565b92505081905550805f808473ffffffffffffffffffffffffffffffffffffffff1673ffffffffffffffffffffffffffffffffffffffff1681526020019081526020015f206003015f82825461076d919061145b565b925050819055508173ffffffffffffffffffffffffffffffffffffffff168373ffffffffffffffffffffffffffffffffffffffff167fa6d0e191067785d8045a4c6118c0bba4f765bdee910cf42f887dec9859b9e9aa836040516107d19190610f7f565b60405180910390a3505050565b5f73ffffffffffffffffffffffffffffffffffffffff165f808473ffffffffffffffffffffffffffffffffffffffff1673ffffffffffffffffffffffffffffffffffffffff1681526020019081526020015f205f015f9054906101000a900473ffffffffffffffffffffffffffffffffffffffff1673ffffffffffffffffffffffffffffffffffffffff16036108a9576040517f08c379a00000000000000000000000000000000000000000000000000000000081526004016108a0906114d8565b60405180910390fd5b805f808473ffffffffffffffffffffffffffffffffffffffff1673ffffffffffffffffffffffffffffffffffffffff1681526020019081526020015f2060030154101561092b576040517f08c379a000000000000000000000000000000000000000000000000000000000815260040161092290611540565b60405180910390fd5b805f808473ffffffffffffffffffffffffffffffffffffffff1673ffffffffffffffffffffffffffffffffffffffff1681526020019081526020015f206003015f8282546109799190611428565b925050819055508173ffffffffffffffffffffffffffffffffffffffff167fd060d70a4e4c862c9b406a8d65b43e2d776c561d2584f38452c305efd45f655b826040516109c69190610f7f565b60405180910390a25050565b6001602052805f5260405f205f915090505481565b5f73ffffffffffffffffffffffffffffffffffffffff165f808473ffffffffffffffffffffffffffffffffffffffff1673ffffffffffffffffffffffffffffffffffffffff1681526020019081526020015f205f015f9054906101000a900473ffffffffffffffffffffffffffffffffffffffff1673ffffffffffffffffffffffffffffffffffffffff1603610ab2576040517f08c379a0000000000000000000000000000000000000000000000000000000008152600401610aa9906114d8565b60405180910390fd5b805f808473ffffffffffffffffffffffffffffffffffffffff1673ffffffffffffffffffffffffffffffffffffffff1681526020019081526020015f206003015f828254610b00919061145b565b925050819055508173ffffffffffffffffffffffffffffffffffffffff167f1fb0700c613db30cd4de48e588ed2839815da65b8879f385d0fbb1718d8020f782604051610b4d9190610f7f565b60405180910390a25050565b5f604051905090565b5f80fd5b5f80fd5b5f73ffffffffffffffffffffffffffffffffffffffff82169050919050565b5f610b9382610b6a565b9050919050565b610ba381610b89565b8114610bad575f80fd5b50565b5f81359050610bbe81610b9a565b92915050565b5f80fd5b5f80fd5b5f601f19601f8301169050919050565b7f4e487b71000000000000000000000000000000000000000000000000000000005f52604160045260245ffd5b610c1282610bcc565b810181811067ffffffffffffffff82111715610c3157610c30610bdc565b5b80604052505050565b5f610c43610b59565b9050610c4f8282610c09565b919050565b5f67ffffffffffffffff821115610c6e57610c6d610bdc565b5b610c7782610bcc565b9050602081019050919050565b828183375f83830152505050565b5f610ca4610c9f84610c54565b610c3a565b905082815260208101848484011115610cc057610cbf610bc8565b5b610ccb848285610c84565b509392505050565b5f82601f830112610ce757610ce6610bc4565b5b8135610cf7848260208601610c92565b91505092915050565b5f819050919050565b610d1281610d00565b8114610d1c575f80fd5b50565b5f81359050610d2d81610d09565b92915050565b5f805f8060808587031215610d4b57610d4a610b62565b5b5f610d5887828801610bb0565b945050602085013567ffffffffffffffff811115610d7957610d78610b66565b5b610d8587828801610cd3565b935050604085013567ffffffffffffffff811115610da657610da5610b66565b5b610db287828801610cd3565b9250506060610dc387828801610d1f565b91505092959194509250565b5f60208284031215610de457610de3610b62565b5b5f610df184828501610bb0565b91505092915050565b610e0381610b89565b82525050565b5f81519050919050565b5f82825260208201905092915050565b5f5b83811015610e40578082015181840152602081019050610e25565b5f8484015250505050565b5f610e5582610e09565b610e5f8185610e13565b9350610e6f818560208601610e23565b610e7881610bcc565b840191505092915050565b610e8c81610d00565b82525050565b5f60a082019050610ea55f830188610dfa565b8181036020830152610eb78187610e4b565b90508181036040830152610ecb8186610e4b565b9050610eda6060830185610e83565b610ee76080830184610e83565b9695505050505050565b5f805f60608486031215610f0857610f07610b62565b5b5f610f1586828701610bb0565b9350506020610f2686828701610bb0565b9250506040610f3786828701610d1f565b9150509250925092565b5f8060408385031215610f5757610f56610b62565b5b5f610f6485828601610bb0565b9250506020610f7585828601610d1f565b9150509250929050565b5f602082019050610f925f830184610e83565b92915050565b7f4e487b71000000000000000000000000000000000000000000000000000000005f52602260045260245ffd5b5f6002820490506001821680610fdc57607f821691505b602082108103610fef57610fee610f98565b5b50919050565b5f819050815f5260205f209050919050565b5f6020601f8301049050919050565b5f82821b905092915050565b5f600883026110517fffffffffffffffffffffffffffffffffffffffffffffffffffffffffffffffff82611016565b61105b8683611016565b95508019841693508086168417925050509392505050565b5f819050919050565b5f61109661109161108c84610d00565b611073565b610d00565b9050919050565b5f819050919050565b6110af8361107c565b6110c36110bb8261109d565b848454611022565b825550505050565b5f90565b6110d76110cb565b6110e28184846110a6565b505050565b5b81811015611105576110fa5f826110cf565b6001810190506110e8565b5050565b601f82111561114a5761111b81610ff5565b61112484611007565b81016020851015611133578190505b61114761113f85611007565b8301826110e7565b50505b505050565b5f82821c905092915050565b5f61116a5f198460080261114f565b1980831691505092915050565b5f611182838361115b565b9150826002028217905092915050565b61119b82610e09565b67ffffffffffffffff8111156111b4576111b3610bdc565b5b6111be8254610fc5565b6111c9828285611109565b5f60209050601f8311600181146111fa575f84156111e8578287015190505b6111f28582611177565b865550611259565b601f19841661120886610ff5565b5f5b8281101561122f5784890151825560018201915060208501945060208101905061120a565b8683101561124c5784890151611248601f89168261115b565b8355505b6001600288020188555050505b505050505050565b5f6060820190506112745f830186610dfa565b81810360208301526112868185610e4b565b90506112956040830184610e83565b949350505050565b7f53656c6c6572206e6f7420726567697374657265642e000000000000000000005f82015250565b5f6112d1601683610e13565b91506112dc8261129d565b602082019050919050565b5f6020820190508181035f8301526112fe816112c5565b9050919050565b7f4275796572206e6f7420726567697374657265642e00000000000000000000005f82015250565b5f611339601583610e13565b915061134482611305565b602082019050919050565b5f6020820190508181035f8301526113668161132d565b9050919050565b7f53656c6c657220646f6573206e6f74206861766520656e6f75676820636172625f8201527f6f6e20637265646974732e000000000000000000000000000000000000000000602082015250565b5f6113c7602b83610e13565b91506113d28261136d565b604082019050919050565b5f6020820190508181035f8301526113f4816113bb565b9050919050565b7f4e487b71000000000000000000000000000000000000000000000000000000005f52601160045260245ffd5b5f61143282610d00565b915061143d83610d00565b9250828203905081811115611455576114546113fb565b5b92915050565b5f61146582610d00565b915061147083610d00565b9250828201905080821115611488576114876113fb565b5b92915050565b7f436f6d70616e79206e6f7420726567697374657265642e0000000000000000005f82015250565b5f6114c2601783610e13565b91506114cd8261148e565b602082019050919050565b5f6020820190508181035f8301526114ef816114b6565b9050919050565b7f4e6f7420656e6f75676820636172626f6e20637265646974732e0000000000005f82015250565b5f61152a601a83610e13565b9150611535826114f6565b602082019050919050565b5f6020820190508181035f8301526115578161151e565b905091905056fea264697066735822122001b4d9873cf8462ff89f2dd99cb7421a240f25dcc7c0f3ccc788190e27665d0b64736f6c63430008150033",
  "immutableReferences": {},
  "source": "// SPDX-License-Identifier: MIT\n// Contain the `Company` struct and related functions\npragma solidity ^0.8.0;\n\ncontract CompanyContract {\n    struct Company {\n        address walletAddress;\n        string name;\n        string registrationNumber; // Unique registration number for the company\n        uint carbonCredits; // New attribute for carbon credits\n        uint emissions; // New attribute for emissions\n        // Add other company details as needed\n    }\n\n    mapping(address => Company) public companies;\n    mapping(address => uint) public companyCredits; // Mapping to track credit balances\n\n    // Event to emit when a company is registered\n    event CompanyRegistered(address walletAddress, string name, uint emissions);\n\n    // Event to emit when carbon credits are added\n    event CarbonCreditsAdded(address indexed walletAddress, uint amount);\n\n    // Event to emit when carbon credits are deducted\n    event CarbonCreditsDeducted(address indexed walletAddress, uint amount);\n\n    // Event to emit when carbon credits are traded\n    event CarbonCreditsTraded(address indexed seller, address indexed buyer, uint amount);\n\n    function registerCompany(\n        address _walletAddress,\n        string memory _name,\n        string memory _registrationNumber,\n        uint _emissions // Pass emissions as a parameter\n        // Add other parameters as needed\n    ) public {\n        Company storage company = companies[_walletAddress];\n\n        if (company.walletAddress == address(0)) {\n            // Create a new Company struct if the company is not registered\n            companies[_walletAddress] = Company({\n                walletAddress: _walletAddress,\n                name: _name,\n                registrationNumber: _registrationNumber,\n                carbonCredits: 0, // Initialize carbon credits to 0 for new companies\n                emissions: _emissions // Set emissions to the passed value\n                // Set other details\n            });\n\n            // Emit an event after successful registration\n            emit CompanyRegistered(_walletAddress, _name, _emissions);\n        } else {\n            // Update emissions if the company already exists\n            company.emissions = _emissions;\n\n            // Emit an event after updating emissions\n            emit CompanyRegistered(_walletAddress, _name, _emissions);\n        }\n    }\n\n    // Function to add carbon credits for a company\n    function addCarbonCredits(address _walletAddress, uint _amount) public {\n        require(companies[_walletAddress].walletAddress != address(0), \"Company not registered.\");\n        \n        // Update the carbon credits for the company\n        companies[_walletAddress].carbonCredits += _amount;\n        \n        // Emit an event after adding carbon credits\n        emit CarbonCreditsAdded(_walletAddress, _amount);\n    }\n\n    // Function to deduct carbon credits from a company\n    function deductCarbonCredits(address _walletAddress, uint _amount) public {\n        require(companies[_walletAddress].walletAddress != address(0), \"Company not registered.\");\n        require(companies[_walletAddress].carbonCredits >= _amount, \"Not enough carbon credits.\");\n        \n        // Deduct the carbon credits from the company\n        companies[_walletAddress].carbonCredits -= _amount;\n        \n        // Emit an event after deducting carbon credits\n        emit CarbonCreditsDeducted(_walletAddress, _amount);\n    }\n\n    // Function to trade carbon credits between companies\n    function tradeCarbonCredits(address _seller, address _buyer, uint _amount) public {\n        require(companies[_seller].walletAddress != address(0), \"Seller not registered.\");\n        require(companies[_buyer].walletAddress != address(0), \"Buyer not registered.\");\n        require(companies[_seller].carbonCredits >= _amount, \"Seller does not have enough carbon credits.\");\n\n        // Transfer carbon credits from seller to buyer\n        companies[_seller].carbonCredits -= _amount;\n        companies[_buyer].carbonCredits += _amount;\n\n        // Emit an event to indicate the trade\n        emit CarbonCreditsTraded(_seller, _buyer, _amount);\n    }\n\n    // Additional functions related to companies\n}\n",
  "sourcePath": "/Users/joyce/Desktop/carbon-credit-proj/contracts/CompanyContract.sol",
  "compiler": {
    "name": "solc",
    "version": "0.8.21+commit.d9974bed.Emscripten.clang"
  },
  "schemaVersion": "3.4.16",
  "updatedAt": "2023-12-04T17:11:41.581Z",
  "networkType": "ethereum",
  "devdoc": {
    "kind": "dev",
    "methods": {},
    "version": 1
  },
  "userdoc": {
    "kind": "user",
    "methods": {},
    "version": 1
  }
}