{
  "contractName": "CompanyContract",
  "abi": [
    {
      "anonymous": false,
      "inputs": [
        {
          "indexed": false,
          "internalType": "address",
          "name": "walletAddress",
          "type": "address"
        },
        {
          "indexed": false,
          "internalType": "string",
          "name": "name",
          "type": "string"
        }
      ],
      "name": "CompanyRegistered",
      "type": "event"
    },
    {
      "inputs": [
        {
          "internalType": "address",
          "name": "",
          "type": "address"
        }
      ],
      "name": "companies",
      "outputs": [
        {
          "internalType": "address",
          "name": "walletAddress",
          "type": "address"
        },
        {
          "internalType": "string",
          "name": "name",
          "type": "string"
        },
        {
          "internalType": "string",
          "name": "registrationNumber",
          "type": "string"
        }
      ],
      "stateMutability": "view",
      "type": "function"
    },
    {
      "inputs": [
        {
          "internalType": "address",
          "name": "",
          "type": "address"
        }
      ],
      "name": "companyCredits",
      "outputs": [
        {
          "internalType": "uint256",
          "name": "",
          "type": "uint256"
        }
      ],
      "stateMutability": "view",
      "type": "function"
    },
    {
      "inputs": [
        {
          "internalType": "address",
          "name": "_walletAddress",
          "type": "address"
        },
        {
          "internalType": "string",
          "name": "_name",
          "type": "string"
        },
        {
          "internalType": "string",
          "name": "_registrationNumber",
          "type": "string"
        }
      ],
      "name": "registerCompany",
      "outputs": [],
      "stateMutability": "nonpayable",
      "type": "function"
    }
  ],
  "bytecode": "0x608060405234801561000f575f80fd5b50610afb8061001d5f395ff3fe608060405234801561000f575f80fd5b506004361061003f575f3560e01c8063355e6ce8146100435780638e58238c14610075578063d37e414514610091575b5f80fd5b61005d6004803603810190610058919061047a565b6100c1565b60405161006c9392919061053e565b60405180910390f35b61008f600480360381019061008a91906106ad565b610211565b005b6100ab60048036038101906100a6919061047a565b6103fa565b6040516100b8919061074d565b60405180910390f35b5f602052805f5260405f205f91509050805f015f9054906101000a900473ffffffffffffffffffffffffffffffffffffffff169080600101805461010490610793565b80601f016020809104026020016040519081016040528092919081815260200182805461013090610793565b801561017b5780601f106101525761010080835404028352916020019161017b565b820191905f5260205f20905b81548152906001019060200180831161015e57829003601f168201915b50505050509080600201805461019090610793565b80601f01602080910402602001604051908101604052809291908181526020018280546101bc90610793565b80156102075780601f106101de57610100808354040283529160200191610207565b820191905f5260205f20905b8154815290600101906020018083116101ea57829003601f168201915b5050505050905083565b5f73ffffffffffffffffffffffffffffffffffffffff165f808573ffffffffffffffffffffffffffffffffffffffff1673ffffffffffffffffffffffffffffffffffffffff1681526020019081526020015f205f015f9054906101000a900473ffffffffffffffffffffffffffffffffffffffff1673ffffffffffffffffffffffffffffffffffffffff16146102dc576040517f08c379a00000000000000000000000000000000000000000000000000000000081526004016102d39061080d565b60405180910390fd5b60405180606001604052808473ffffffffffffffffffffffffffffffffffffffff168152602001838152602001828152505f808573ffffffffffffffffffffffffffffffffffffffff1673ffffffffffffffffffffffffffffffffffffffff1681526020019081526020015f205f820151815f015f6101000a81548173ffffffffffffffffffffffffffffffffffffffff021916908373ffffffffffffffffffffffffffffffffffffffff16021790555060208201518160010190816103a291906109c8565b5060408201518160020190816103b891906109c8565b509050507f76686aa361308f4a08557cca1a847299ce61e5602a3495cd359a599a1dca438c83836040516103ed929190610a97565b60405180910390a1505050565b6001602052805f5260405f205f915090505481565b5f604051905090565b5f80fd5b5f80fd5b5f73ffffffffffffffffffffffffffffffffffffffff82169050919050565b5f61044982610420565b9050919050565b6104598161043f565b8114610463575f80fd5b50565b5f8135905061047481610450565b92915050565b5f6020828403121561048f5761048e610418565b5b5f61049c84828501610466565b91505092915050565b6104ae8161043f565b82525050565b5f81519050919050565b5f82825260208201905092915050565b5f5b838110156104eb5780820151818401526020810190506104d0565b5f8484015250505050565b5f601f19601f8301169050919050565b5f610510826104b4565b61051a81856104be565b935061052a8185602086016104ce565b610533816104f6565b840191505092915050565b5f6060820190506105515f8301866104a5565b81810360208301526105638185610506565b905081810360408301526105778184610506565b9050949350505050565b5f80fd5b5f80fd5b7f4e487b71000000000000000000000000000000000000000000000000000000005f52604160045260245ffd5b6105bf826104f6565b810181811067ffffffffffffffff821117156105de576105dd610589565b5b80604052505050565b5f6105f061040f565b90506105fc82826105b6565b919050565b5f67ffffffffffffffff82111561061b5761061a610589565b5b610624826104f6565b9050602081019050919050565b828183375f83830152505050565b5f61065161064c84610601565b6105e7565b90508281526020810184848401111561066d5761066c610585565b5b610678848285610631565b509392505050565b5f82601f83011261069457610693610581565b5b81356106a484826020860161063f565b91505092915050565b5f805f606084860312156106c4576106c3610418565b5b5f6106d186828701610466565b935050602084013567ffffffffffffffff8111156106f2576106f161041c565b5b6106fe86828701610680565b925050604084013567ffffffffffffffff81111561071f5761071e61041c565b5b61072b86828701610680565b9150509250925092565b5f819050919050565b61074781610735565b82525050565b5f6020820190506107605f83018461073e565b92915050565b7f4e487b71000000000000000000000000000000000000000000000000000000005f52602260045260245ffd5b5f60028204905060018216806107aa57607f821691505b6020821081036107bd576107bc610766565b5b50919050565b7f436f6d70616e7920616c726561647920726567697374657265642e00000000005f82015250565b5f6107f7601b836104be565b9150610802826107c3565b602082019050919050565b5f6020820190508181035f830152610824816107eb565b9050919050565b5f819050815f5260205f209050919050565b5f6020601f8301049050919050565b5f82821b905092915050565b5f600883026108877fffffffffffffffffffffffffffffffffffffffffffffffffffffffffffffffff8261084c565b610891868361084c565b95508019841693508086168417925050509392505050565b5f819050919050565b5f6108cc6108c76108c284610735565b6108a9565b610735565b9050919050565b5f819050919050565b6108e5836108b2565b6108f96108f1826108d3565b848454610858565b825550505050565b5f90565b61090d610901565b6109188184846108dc565b505050565b5b8181101561093b576109305f82610905565b60018101905061091e565b5050565b601f821115610980576109518161082b565b61095a8461083d565b81016020851015610969578190505b61097d6109758561083d565b83018261091d565b50505b505050565b5f82821c905092915050565b5f6109a05f1984600802610985565b1980831691505092915050565b5f6109b88383610991565b9150826002028217905092915050565b6109d1826104b4565b67ffffffffffffffff8111156109ea576109e9610589565b5b6109f48254610793565b6109ff82828561093f565b5f60209050601f831160018114610a30575f8415610a1e578287015190505b610a2885826109ad565b865550610a8f565b601f198416610a3e8661082b565b5f5b82811015610a6557848901518255600182019150602085019450602081019050610a40565b86831015610a825784890151610a7e601f891682610991565b8355505b6001600288020188555050505b505050505050565b5f604082019050610aaa5f8301856104a5565b8181036020830152610abc8184610506565b9050939250505056fea2646970667358221220cfafdd711144928cce8223bead68b00520b9917c4188a516f2eb472c8bcc424b64736f6c63430008150033",
  "immutableReferences": {},
  "source": "// SPDX-License-Identifier: MIT\n// Contain the `Company` struct and related functions\npragma solidity ^0.8.0;\n\ncontract CompanyContract {\n    struct Company {\n        address walletAddress;\n        string name;\n        string registrationNumber; // Unique registration number for the company\n        // Add other company details as needed\n    }\n\n    mapping(address => Company) public companies;\n    mapping(address => uint) public companyCredits; // Mapping to track credit balances\n\n\n    // Event to emit when a company is registered\n    event CompanyRegistered(address walletAddress, string name);\n\n    function registerCompany(\n        address _walletAddress,\n        string memory _name,\n        string memory _registrationNumber\n        // Add other parameters as needed\n    ) public {\n        // Check if the company is already registered\n        require(companies[_walletAddress].walletAddress == address(0), \"Company already registered.\");\n\n        // Create a new Company struct and add it to the mapping\n        companies[_walletAddress] = Company({\n            walletAddress: _walletAddress,\n            name: _name,\n            registrationNumber: _registrationNumber\n            // Set other details\n        });\n\n        // Emit an event after successful registration\n        emit CompanyRegistered(_walletAddress, _name);\n    }\n\n    // Additional functions related to companies\n}\n\n",
  "sourcePath": "/Users/joyce/Desktop/carbon-credit-proj/contracts/Company.sol",
  "compiler": {
    "name": "solc",
    "version": "0.8.21+commit.d9974bed.Emscripten.clang"
  },
  "schemaVersion": "3.4.16",
  "updatedAt": "2023-11-20T10:01:34.940Z",
  "devdoc": {
    "kind": "dev",
    "methods": {},
    "version": 1
  },
  "userdoc": {
    "kind": "user",
    "methods": {},
    "version": 1
  }
}