{
  "contractName": "ProjectContract",
  "abi": [
    {
      "inputs": [],
      "name": "projectCount",
      "outputs": [
        {
          "internalType": "uint256",
          "name": "",
          "type": "uint256"
        }
      ],
      "stateMutability": "view",
      "type": "function",
      "constant": true
    },
    {
      "inputs": [
        {
          "internalType": "uint256",
          "name": "",
          "type": "uint256"
        }
      ],
      "name": "projects",
      "outputs": [
        {
          "internalType": "uint256",
          "name": "id",
          "type": "uint256"
        },
        {
          "internalType": "address",
          "name": "companyAddress",
          "type": "address"
        },
        {
          "internalType": "string",
          "name": "name",
          "type": "string"
        },
        {
          "internalType": "string",
          "name": "description",
          "type": "string"
        },
        {
          "internalType": "string",
          "name": "status",
          "type": "string"
        },
        {
          "internalType": "uint256",
          "name": "expectedOffsets",
          "type": "uint256"
        }
      ],
      "stateMutability": "view",
      "type": "function",
      "constant": true
    },
    {
      "inputs": [
        {
          "internalType": "string",
          "name": "_projectName",
          "type": "string"
        },
        {
          "internalType": "uint256",
          "name": "_expectedOffsets",
          "type": "uint256"
        },
        {
          "internalType": "string",
          "name": "_description",
          "type": "string"
        }
      ],
      "name": "submitProject",
      "outputs": [],
      "stateMutability": "nonpayable",
      "type": "function"
    },
    {
      "inputs": [
        {
          "internalType": "uint256",
          "name": "_projectId",
          "type": "uint256"
        },
        {
          "internalType": "bool",
          "name": "_isApproved",
          "type": "bool"
        }
      ],
      "name": "verifyProject",
      "outputs": [],
      "stateMutability": "nonpayable",
      "type": "function"
    }
  ],
  "bytecode": "0x608060405234801561000f575f80fd5b50610e948061001d5f395ff3fe608060405234801561000f575f80fd5b506004361061004a575f3560e01c8063107046bd1461004e57806336fbad261461008357806372af764f146100a1578063e6836617146100bd575b5f80fd5b610068600480360381019061006391906105e8565b6100d9565b60405161007a969594939291906106eb565b60405180910390f35b61008b6102c1565b604051610098919061075f565b60405180910390f35b6100bb60048036038101906100b691906108a4565b6102c7565b005b6100d760048036038101906100d29190610961565b61040c565b005b5f602052805f5260405f205f91509050805f015490806001015f9054906101000a900473ffffffffffffffffffffffffffffffffffffffff1690806002018054610122906109cc565b80601f016020809104026020016040519081016040528092919081815260200182805461014e906109cc565b80156101995780601f1061017057610100808354040283529160200191610199565b820191905f5260205f20905b81548152906001019060200180831161017c57829003601f168201915b5050505050908060030180546101ae906109cc565b80601f01602080910402602001604051908101604052809291908181526020018280546101da906109cc565b80156102255780601f106101fc57610100808354040283529160200191610225565b820191905f5260205f20905b81548152906001019060200180831161020857829003601f168201915b50505050509080600401805461023a906109cc565b80601f0160208091040260200160405190810160405280929190818152602001828054610266906109cc565b80156102b15780601f10610288576101008083540402835291602001916102b1565b820191905f5260205f20905b81548152906001019060200180831161029457829003601f168201915b5050505050908060050154905086565b60015481565b60015f8154809291906102d990610a29565b91905055506040518060c0016040528060015481526020013373ffffffffffffffffffffffffffffffffffffffff1681526020018481526020018281526020016040518060400160405280601081526020017f50656e64696e6720417070726f76616c000000000000000000000000000000008152508152602001838152505f8060015481526020019081526020015f205f820151815f01556020820151816001015f6101000a81548173ffffffffffffffffffffffffffffffffffffffff021916908373ffffffffffffffffffffffffffffffffffffffff16021790555060408201518160020190816103cd9190610c0d565b5060608201518160030190816103e39190610c0d565b5060808201518160040190816103f99190610c0d565b5060a08201518160050155905050505050565b5f8211801561041d57506001548211155b61045c576040517f08c379a000000000000000000000000000000000000000000000000000000000815260040161045390610d26565b60405180910390fd5b5f805f8481526020019081526020015f2090506040518060400160405280601081526020017f50656e64696e6720417070726f76616c0000000000000000000000000000000081525080519060200120816004016040516104bd9190610de0565b604051809103902014610505576040517f08c379a00000000000000000000000000000000000000000000000000000000081526004016104fc90610e40565b60405180910390fd5b8115610557576040518060400160405280600881526020017f417070726f7665640000000000000000000000000000000000000000000000008152508160040190816105519190610c0d565b5061059f565b6040518060400160405280600881526020017f52656a656374656400000000000000000000000000000000000000000000000081525081600401908161059d9190610c0d565b505b505050565b5f604051905090565b5f80fd5b5f80fd5b5f819050919050565b6105c7816105b5565b81146105d1575f80fd5b50565b5f813590506105e2816105be565b92915050565b5f602082840312156105fd576105fc6105ad565b5b5f61060a848285016105d4565b91505092915050565b61061c816105b5565b82525050565b5f73ffffffffffffffffffffffffffffffffffffffff82169050919050565b5f61064b82610622565b9050919050565b61065b81610641565b82525050565b5f81519050919050565b5f82825260208201905092915050565b5f5b8381101561069857808201518184015260208101905061067d565b5f8484015250505050565b5f601f19601f8301169050919050565b5f6106bd82610661565b6106c7818561066b565b93506106d781856020860161067b565b6106e0816106a3565b840191505092915050565b5f60c0820190506106fe5f830189610613565b61070b6020830188610652565b818103604083015261071d81876106b3565b9050818103606083015261073181866106b3565b9050818103608083015261074581856106b3565b905061075460a0830184610613565b979650505050505050565b5f6020820190506107725f830184610613565b92915050565b5f80fd5b5f80fd5b7f4e487b71000000000000000000000000000000000000000000000000000000005f52604160045260245ffd5b6107b6826106a3565b810181811067ffffffffffffffff821117156107d5576107d4610780565b5b80604052505050565b5f6107e76105a4565b90506107f382826107ad565b919050565b5f67ffffffffffffffff82111561081257610811610780565b5b61081b826106a3565b9050602081019050919050565b828183375f83830152505050565b5f610848610843846107f8565b6107de565b9050828152602081018484840111156108645761086361077c565b5b61086f848285610828565b509392505050565b5f82601f83011261088b5761088a610778565b5b813561089b848260208601610836565b91505092915050565b5f805f606084860312156108bb576108ba6105ad565b5b5f84013567ffffffffffffffff8111156108d8576108d76105b1565b5b6108e486828701610877565b93505060206108f5868287016105d4565b925050604084013567ffffffffffffffff811115610916576109156105b1565b5b61092286828701610877565b9150509250925092565b5f8115159050919050565b6109408161092c565b811461094a575f80fd5b50565b5f8135905061095b81610937565b92915050565b5f8060408385031215610977576109766105ad565b5b5f610984858286016105d4565b92505060206109958582860161094d565b9150509250929050565b7f4e487b71000000000000000000000000000000000000000000000000000000005f52602260045260245ffd5b5f60028204905060018216806109e357607f821691505b6020821081036109f6576109f561099f565b5b50919050565b7f4e487b71000000000000000000000000000000000000000000000000000000005f52601160045260245ffd5b5f610a33826105b5565b91507fffffffffffffffffffffffffffffffffffffffffffffffffffffffffffffffff8203610a6557610a646109fc565b5b600182019050919050565b5f819050815f5260205f209050919050565b5f6020601f8301049050919050565b5f82821b905092915050565b5f60088302610acc7fffffffffffffffffffffffffffffffffffffffffffffffffffffffffffffffff82610a91565b610ad68683610a91565b95508019841693508086168417925050509392505050565b5f819050919050565b5f610b11610b0c610b07846105b5565b610aee565b6105b5565b9050919050565b5f819050919050565b610b2a83610af7565b610b3e610b3682610b18565b848454610a9d565b825550505050565b5f90565b610b52610b46565b610b5d818484610b21565b505050565b5b81811015610b8057610b755f82610b4a565b600181019050610b63565b5050565b601f821115610bc557610b9681610a70565b610b9f84610a82565b81016020851015610bae578190505b610bc2610bba85610a82565b830182610b62565b50505b505050565b5f82821c905092915050565b5f610be55f1984600802610bca565b1980831691505092915050565b5f610bfd8383610bd6565b9150826002028217905092915050565b610c1682610661565b67ffffffffffffffff811115610c2f57610c2e610780565b5b610c3982546109cc565b610c44828285610b84565b5f60209050601f831160018114610c75575f8415610c63578287015190505b610c6d8582610bf2565b865550610cd4565b601f198416610c8386610a70565b5f5b82811015610caa57848901518255600182019150602085019450602081019050610c85565b86831015610cc75784890151610cc3601f891682610bd6565b8355505b6001600288020188555050505b505050505050565b7f50726f6a65637420646f6573206e6f742065786973742e0000000000000000005f82015250565b5f610d1060178361066b565b9150610d1b82610cdc565b602082019050919050565b5f6020820190508181035f830152610d3d81610d04565b9050919050565b5f81905092915050565b5f819050815f5260205f209050919050565b5f8154610d6c816109cc565b610d768186610d44565b9450600182165f8114610d905760018114610da557610dd7565b60ff1983168652811515820286019350610dd7565b610dae85610d4e565b5f5b83811015610dcf57815481890152600182019150602081019050610db0565b838801955050505b50505092915050565b5f610deb8284610d60565b915081905092915050565b7f50726f6a656374206e6f742070656e64696e6720617070726f76616c2e0000005f82015250565b5f610e2a601d8361066b565b9150610e3582610df6565b602082019050919050565b5f6020820190508181035f830152610e5781610e1e565b905091905056fea26469706673582212205d3c6c3e49b7c6dbb701cdcd361f09a1a0b479d3916b05365d804a066390b00664736f6c63430008150033",
  "immutableReferences": {},
  "source": "// SPDX-License-Identifier: MIT\n// This file will handle everything related to carbon offset projects\npragma solidity ^0.8.0;\n\nimport \"./CompanyContract.sol\";\n\ncontract ProjectContract {\n    struct Project {\n        uint id;\n        address companyAddress;\n        string name; // Name of Project\n        string description; // Description of project\n        string status; // \"Pending Approval\", \"Approved\", \"Rejected\"\n        uint expectedOffsets;\n        // other project details\n    }\n\n    mapping(uint => Project) public projects;\n    uint public projectCount;\n\n    function submitProject(\n        string memory _projectName,\n        uint _expectedOffsets,\n        string memory _description\n    ) public {\n        // Increment projectCount to get a new unique ID for the project\n        projectCount++;\n\n        // Add the new project to the projects mapping\n        projects[projectCount] = Project({\n            id: projectCount,\n            companyAddress: msg.sender, // The address of the company submitting the project\n            name: _projectName,\n            description: _description,\n            status: \"Pending Approval\",\n            expectedOffsets: _expectedOffsets\n            // Set other project details\n        });\n        // Emit an event if we have one for a new project submission\n    }\n\n    function verifyProject(uint _projectId, bool _isApproved) public {\n        // Check if the project exists\n        require(_projectId > 0 && _projectId <= projectCount, \"Project does not exist.\");\n        \n        // Retrieve the project\n        Project storage project = projects[_projectId];\n\n        // Check if the project is in 'Pending Approval' status\n        require(keccak256(bytes(project.status)) == keccak256(bytes(\"Pending Approval\")), \"Project not pending approval.\");\n\n        // Update the status based on the approval\n        if (_isApproved){\n            project.status = \"Approved\";\n        } else {\n            project.status = \"Rejected\";\n        }\n\n        // Emit an event if we have one for project verification\n    }\n\n    // Additional project-related functions\n}\n",
  "sourcePath": "/Users/joyce/Desktop/carbon-credit-proj/contracts/ProjectContract.sol",
  "compiler": {
    "name": "solc",
    "version": "0.8.21+commit.d9974bed.Emscripten.clang"
  },
  "schemaVersion": "3.4.16",
  "updatedAt": "2023-11-27T16:11:31.337Z",
  "networkType": "ethereum",
  "devdoc": {
    "kind": "dev",
    "methods": {},
    "version": 1
  },
  "userdoc": {
    "kind": "user",
    "methods": {},
    "version": 1
  }
}