{
  "contractName": "TradeContract",
  "abi": [
    {
      "inputs": [],
      "name": "tradeCount",
      "outputs": [
        {
          "internalType": "uint256",
          "name": "",
          "type": "uint256"
        }
      ],
      "stateMutability": "view",
      "type": "function",
      "constant": true
    },
    {
      "inputs": [
        {
          "internalType": "uint256",
          "name": "",
          "type": "uint256"
        }
      ],
      "name": "trades",
      "outputs": [
        {
          "internalType": "uint256",
          "name": "id",
          "type": "uint256"
        },
        {
          "internalType": "address",
          "name": "buyer",
          "type": "address"
        },
        {
          "internalType": "address",
          "name": "seller",
          "type": "address"
        },
        {
          "internalType": "uint256",
          "name": "creditsAmount",
          "type": "uint256"
        },
        {
          "internalType": "string",
          "name": "terms",
          "type": "string"
        },
        {
          "internalType": "string",
          "name": "status",
          "type": "string"
        }
      ],
      "stateMutability": "view",
      "type": "function",
      "constant": true
    },
    {
      "inputs": [
        {
          "internalType": "address",
          "name": "_buyer",
          "type": "address"
        },
        {
          "internalType": "address",
          "name": "_seller",
          "type": "address"
        },
        {
          "internalType": "uint256",
          "name": "_creditsAmount",
          "type": "uint256"
        },
        {
          "internalType": "string",
          "name": "_terms",
          "type": "string"
        }
      ],
      "name": "createTrade",
      "outputs": [],
      "stateMutability": "nonpayable",
      "type": "function"
    },
    {
      "inputs": [
        {
          "internalType": "uint256",
          "name": "_tradeId",
          "type": "uint256"
        }
      ],
      "name": "completeTrade",
      "outputs": [],
      "stateMutability": "nonpayable",
      "type": "function"
    }
  ],
  "bytecode": "0x608060405234801561000f575f80fd5b50610dc88061001d5f395ff3fe608060405234801561000f575f80fd5b506004361061004a575f3560e01c80631e6c598e1461004e578063225e631714610083578063ad2215511461009f578063bd55022a146100bb575b5f80fd5b61006860048036038101906100639190610574565b6100d9565b60405161007a96959493929190610677565b60405180910390f35b61009d6004803603810190610098919061083a565b61025a565b005b6100b960048036038101906100b49190610574565b6103e6565b005b6100c361052a565b6040516100d091906108ba565b60405180910390f35b5f602052805f5260405f205f91509050805f015490806001015f9054906101000a900473ffffffffffffffffffffffffffffffffffffffff1690806002015f9054906101000a900473ffffffffffffffffffffffffffffffffffffffff169080600301549080600401805461014d90610900565b80601f016020809104026020016040519081016040528092919081815260200182805461017990610900565b80156101c45780601f1061019b576101008083540402835291602001916101c4565b820191905f5260205f20905b8154815290600101906020018083116101a757829003601f168201915b5050505050908060050180546101d990610900565b80601f016020809104026020016040519081016040528092919081815260200182805461020590610900565b80156102505780601f1061022757610100808354040283529160200191610250565b820191905f5260205f20905b81548152906001019060200180831161023357829003601f168201915b5050505050905086565b60015f81548092919061026c9061095d565b91905055506040518060c0016040528060015481526020018573ffffffffffffffffffffffffffffffffffffffff1681526020018473ffffffffffffffffffffffffffffffffffffffff1681526020018381526020018281526020016040518060400160405280600781526020017f43726561746564000000000000000000000000000000000000000000000000008152508152505f8060015481526020019081526020015f205f820151815f01556020820151816001015f6101000a81548173ffffffffffffffffffffffffffffffffffffffff021916908373ffffffffffffffffffffffffffffffffffffffff1602179055506040820151816002015f6101000a81548173ffffffffffffffffffffffffffffffffffffffff021916908373ffffffffffffffffffffffffffffffffffffffff1602179055506060820151816003015560808201518160040190816103c69190610b41565b5060a08201518160050190816103dc9190610b41565b5090505050505050565b5f811180156103f757506001548111155b610436576040517f08c379a000000000000000000000000000000000000000000000000000000000815260040161042d90610c5a565b60405180910390fd5b5f805f8381526020019081526020015f2090506040518060400160405280600781526020017f437265617465640000000000000000000000000000000000000000000000000081525080519060200120816005016040516104979190610d14565b6040518091039020146104df576040517f08c379a00000000000000000000000000000000000000000000000000000000081526004016104d690610d74565b60405180910390fd5b6040518060400160405280600981526020017f436f6d706c6574656400000000000000000000000000000000000000000000008152508160050190816105259190610b41565b505050565b60015481565b5f604051905090565b5f80fd5b5f80fd5b5f819050919050565b61055381610541565b811461055d575f80fd5b50565b5f8135905061056e8161054a565b92915050565b5f6020828403121561058957610588610539565b5b5f61059684828501610560565b91505092915050565b6105a881610541565b82525050565b5f73ffffffffffffffffffffffffffffffffffffffff82169050919050565b5f6105d7826105ae565b9050919050565b6105e7816105cd565b82525050565b5f81519050919050565b5f82825260208201905092915050565b5f5b83811015610624578082015181840152602081019050610609565b5f8484015250505050565b5f601f19601f8301169050919050565b5f610649826105ed565b61065381856105f7565b9350610663818560208601610607565b61066c8161062f565b840191505092915050565b5f60c08201905061068a5f83018961059f565b61069760208301886105de565b6106a460408301876105de565b6106b1606083018661059f565b81810360808301526106c3818561063f565b905081810360a08301526106d7818461063f565b9050979650505050505050565b6106ed816105cd565b81146106f7575f80fd5b50565b5f81359050610708816106e4565b92915050565b5f80fd5b5f80fd5b7f4e487b71000000000000000000000000000000000000000000000000000000005f52604160045260245ffd5b61074c8261062f565b810181811067ffffffffffffffff8211171561076b5761076a610716565b5b80604052505050565b5f61077d610530565b90506107898282610743565b919050565b5f67ffffffffffffffff8211156107a8576107a7610716565b5b6107b18261062f565b9050602081019050919050565b828183375f83830152505050565b5f6107de6107d98461078e565b610774565b9050828152602081018484840111156107fa576107f9610712565b5b6108058482856107be565b509392505050565b5f82601f8301126108215761082061070e565b5b81356108318482602086016107cc565b91505092915050565b5f805f806080858703121561085257610851610539565b5b5f61085f878288016106fa565b9450506020610870878288016106fa565b935050604061088187828801610560565b925050606085013567ffffffffffffffff8111156108a2576108a161053d565b5b6108ae8782880161080d565b91505092959194509250565b5f6020820190506108cd5f83018461059f565b92915050565b7f4e487b71000000000000000000000000000000000000000000000000000000005f52602260045260245ffd5b5f600282049050600182168061091757607f821691505b60208210810361092a576109296108d3565b5b50919050565b7f4e487b71000000000000000000000000000000000000000000000000000000005f52601160045260245ffd5b5f61096782610541565b91507fffffffffffffffffffffffffffffffffffffffffffffffffffffffffffffffff820361099957610998610930565b5b600182019050919050565b5f819050815f5260205f209050919050565b5f6020601f8301049050919050565b5f82821b905092915050565b5f60088302610a007fffffffffffffffffffffffffffffffffffffffffffffffffffffffffffffffff826109c5565b610a0a86836109c5565b95508019841693508086168417925050509392505050565b5f819050919050565b5f610a45610a40610a3b84610541565b610a22565b610541565b9050919050565b5f819050919050565b610a5e83610a2b565b610a72610a6a82610a4c565b8484546109d1565b825550505050565b5f90565b610a86610a7a565b610a91818484610a55565b505050565b5b81811015610ab457610aa95f82610a7e565b600181019050610a97565b5050565b601f821115610af957610aca816109a4565b610ad3846109b6565b81016020851015610ae2578190505b610af6610aee856109b6565b830182610a96565b50505b505050565b5f82821c905092915050565b5f610b195f1984600802610afe565b1980831691505092915050565b5f610b318383610b0a565b9150826002028217905092915050565b610b4a826105ed565b67ffffffffffffffff811115610b6357610b62610716565b5b610b6d8254610900565b610b78828285610ab8565b5f60209050601f831160018114610ba9575f8415610b97578287015190505b610ba18582610b26565b865550610c08565b601f198416610bb7866109a4565b5f5b82811015610bde57848901518255600182019150602085019450602081019050610bb9565b86831015610bfb5784890151610bf7601f891682610b0a565b8355505b6001600288020188555050505b505050505050565b7f547261646520646f6573206e6f742065786973742e00000000000000000000005f82015250565b5f610c446015836105f7565b9150610c4f82610c10565b602082019050919050565b5f6020820190508181035f830152610c7181610c38565b9050919050565b5f81905092915050565b5f819050815f5260205f209050919050565b5f8154610ca081610900565b610caa8186610c78565b9450600182165f8114610cc45760018114610cd957610d0b565b60ff1983168652811515820286019350610d0b565b610ce285610c82565b5f5b83811015610d0357815481890152600182019150602081019050610ce4565b838801955050505b50505092915050565b5f610d1f8284610c94565b915081905092915050565b7f5472616465206e6f7420696e20636f7272656374207374617475732e000000005f82015250565b5f610d5e601c836105f7565b9150610d6982610d2a565b602082019050919050565b5f6020820190508181035f830152610d8b81610d52565b905091905056fea2646970667358221220c5657a1551c1f8113b16f0da209f49f3b5ea99ae7407b499b1a5461f91ea163d64736f6c63430008150033",
  "immutableReferences": {},
  "source": "// SPDX-License-Identifier: MIT\n// To handle OTC trades\npragma solidity ^0.8.0;\n\nimport \"./CompanyContract.sol\";\n\ncontract TradeContract {\n    struct Trade {\n        uint id;\n        address buyer;\n        address seller;\n        uint creditsAmount;\n        string terms;\n        string status; // \"Created\", \"Completed\"\n        // other trade details\n    }\n\n    mapping(uint => Trade) public trades;\n    uint public tradeCount;\n\n    function createTrade(\n        address _buyer,\n        address _seller,\n        uint _creditsAmount,\n        string memory _terms\n    ) public {\n        // Increment tradeCount to get a new unique ID for the trade\n        tradeCount++;\n\n        // Add the new trade to the trades mapping\n        trades[tradeCount] = Trade({\n            id: tradeCount,\n            buyer: _buyer,\n            seller: _seller,\n            creditsAmount: _creditsAmount,\n            terms: _terms,\n            status: \"Created\"\n            // Set other trade details\n        });\n        // Emit an event if we have one for a new trade creation\n    }\n\n    function completeTrade(uint _tradeId) public {\n        // Check if the trade exists\n        require(_tradeId > 0 && _tradeId <= tradeCount, \"Trade does not exist.\");\n\n        // Retrieve the trade\n        Trade storage trade = trades[_tradeId];\n\n        // Check if the trade is in 'Created' status\n        require(keccak256(bytes(trade.status)) == keccak256(bytes(\"Created\")), \"Trade not in correct status.\");\n\n        // Additional checks can be implemented here, like verifying the caller's authority to complete the trade\n        trade.status = \"Completed\";\n\n        // Emit an event if we have one for trade completion\n    }\n\n    // Additional trade-related functions\n}\n",
  "sourcePath": "/Users/joyce/Desktop/carbon-credit-proj/contracts/TradeContract.sol",
  "compiler": {
    "name": "solc",
    "version": "0.8.21+commit.d9974bed.Emscripten.clang"
  },
  "schemaVersion": "3.4.16",
  "updatedAt": "2023-12-04T17:11:41.590Z",
  "networkType": "ethereum",
  "devdoc": {
    "kind": "dev",
    "methods": {},
    "version": 1
  },
  "userdoc": {
    "kind": "user",
    "methods": {},
    "version": 1
  }
}